{
	"todo.sol": {
		"Tasks": {
			"abi": [
				{
					"inputs": [
						{
							"internalType": "string",
							"name": "task_data",
							"type": "string"
						}
					],
					"name": "addTask",
					"outputs": [],
					"stateMutability": "nonpayable",
					"type": "function"
				},
				{
					"inputs": [],
					"name": "getTask",
					"outputs": [
						{
							"components": [
								{
									"internalType": "uint256",
									"name": "id",
									"type": "uint256"
								},
								{
									"internalType": "string",
									"name": "task",
									"type": "string"
								},
								{
									"internalType": "bool",
									"name": "isCompleted",
									"type": "bool"
								}
							],
							"internalType": "struct Tasks.Task[]",
							"name": "",
							"type": "tuple[]"
						}
					],
					"stateMutability": "view",
					"type": "function"
				}
			],
			"devdoc": {
				"kind": "dev",
				"methods": {},
				"version": 1
			},
			"evm": {
				"assembly": "    /* \"todo.sol\":26:436  contract Tasks{\r... */\n  mstore(0x40, 0x80)\n  callvalue\n  dup1\n  iszero\n  tag_1\n  jumpi\n  0x00\n  dup1\n  revert\ntag_1:\n  pop\n  dataSize(sub_0)\n  dup1\n  dataOffset(sub_0)\n  0x00\n  codecopy\n  0x00\n  return\nstop\n\nsub_0: assembly {\n        /* \"todo.sol\":26:436  contract Tasks{\r... */\n      mstore(0x40, 0x80)\n      callvalue\n      dup1\n      iszero\n      tag_1\n      jumpi\n      0x00\n      dup1\n      revert\n    tag_1:\n      pop\n      jumpi(tag_2, lt(calldatasize, 0x04))\n      shr(0xe0, calldataload(0x00))\n      dup1\n      0x67238562\n      eq\n      tag_3\n      jumpi\n      dup1\n      0xa31662d2\n      eq\n      tag_4\n      jumpi\n    tag_2:\n      0x00\n      dup1\n      revert\n        /* \"todo.sol\":181:333  function addTask(string calldata task_data) external{\r... */\n    tag_3:\n      tag_5\n      0x04\n      dup1\n      calldatasize\n      sub\n      dup2\n      add\n      swap1\n      tag_6\n      swap2\n      swap1\n      tag_7\n      jump\t// in\n    tag_6:\n      tag_8\n      jump\t// in\n    tag_5:\n      stop\n        /* \"todo.sol\":341:433  function getTask() external view returns (Task[] memory){\r... */\n    tag_4:\n      tag_9\n      tag_10\n      jump\t// in\n    tag_9:\n      mload(0x40)\n      tag_11\n      swap2\n      swap1\n      tag_12\n      jump\t// in\n    tag_11:\n      mload(0x40)\n      dup1\n      swap2\n      sub\n      swap1\n      return\n        /* \"todo.sol\":181:333  function addTask(string calldata task_data) external{\r... */\n    tag_8:\n        /* \"todo.sol\":244:251  uint id */\n      0x00\n        /* \"todo.sol\":254:264  tasks_list */\n      dup1\n        /* \"todo.sol\":254:271  tasks_list.length */\n      dup1\n      sload\n      swap1\n      pop\n        /* \"todo.sol\":244:271  uint id = tasks_list.length */\n      swap1\n      pop\n        /* \"todo.sol\":282:292  tasks_list */\n      0x00\n        /* \"todo.sol\":298:324  Task(id, task_data, false) */\n      mload(0x40)\n      dup1\n      0x60\n      add\n      0x40\n      mstore\n      dup1\n        /* \"todo.sol\":303:305  id */\n      dup4\n        /* \"todo.sol\":298:324  Task(id, task_data, false) */\n      dup2\n      mstore\n      0x20\n      add\n        /* \"todo.sol\":307:316  task_data */\n      dup6\n      dup6\n        /* \"todo.sol\":298:324  Task(id, task_data, false) */\n      dup1\n      dup1\n      0x1f\n      add\n      0x20\n      dup1\n      swap2\n      div\n      mul\n      0x20\n      add\n      mload(0x40)\n      swap1\n      dup2\n      add\n      0x40\n      mstore\n      dup1\n      swap4\n      swap3\n      swap2\n      swap1\n      dup2\n      dup2\n      mstore\n      0x20\n      add\n      dup4\n      dup4\n      dup1\n      dup3\n      dup5\n      calldatacopy\n      0x00\n      dup2\n      dup5\n      add\n      mstore\n      not(0x1f)\n      0x1f\n      dup3\n      add\n      and\n      swap1\n      pop\n      dup1\n      dup4\n      add\n      swap3\n      pop\n      pop\n      pop\n      pop\n      pop\n      pop\n      pop\n      dup2\n      mstore\n      0x20\n      add\n        /* \"todo.sol\":318:323  false */\n      0x00\n        /* \"todo.sol\":298:324  Task(id, task_data, false) */\n      iszero\n      iszero\n      dup2\n      mstore\n      pop\n        /* \"todo.sol\":282:325  tasks_list.push(Task(id, task_data, false)) */\n      swap1\n      dup1\n      0x01\n      dup2\n      sload\n      add\n      dup1\n      dup3\n      sstore\n      dup1\n      swap2\n      pop\n      pop\n      0x01\n      swap1\n      sub\n      swap1\n      0x00\n      mstore\n      keccak256(0x00, 0x20)\n      swap1\n      0x03\n      mul\n      add\n      0x00\n      swap1\n      swap2\n      swap1\n      swap2\n      swap1\n      swap2\n      pop\n      0x00\n      dup3\n      add\n      mload\n      dup2\n      0x00\n      add\n      sstore\n      0x20\n      dup3\n      add\n      mload\n      dup2\n      0x01\n      add\n      swap1\n      dup1\n      mload\n      swap1\n      0x20\n      add\n      swap1\n      tag_15\n      swap3\n      swap2\n      swap1\n      tag_16\n      jump\t// in\n    tag_15:\n      pop\n      0x40\n      dup3\n      add\n      mload\n      dup2\n      0x02\n      add\n      exp(0x0100, 0x00)\n      dup2\n      sload\n      dup2\n      0xff\n      mul\n      not\n      and\n      swap1\n      dup4\n      iszero\n      iszero\n      mul\n      or\n      swap1\n      sstore\n      pop\n      pop\n      pop\n        /* \"todo.sol\":181:333  function addTask(string calldata task_data) external{\r... */\n      pop\n      pop\n      pop\n      jump\t// out\n        /* \"todo.sol\":341:433  function getTask() external view returns (Task[] memory){\r... */\n    tag_10:\n        /* \"todo.sol\":383:396  Task[] memory */\n      0x60\n        /* \"todo.sol\":415:425  tasks_list */\n      0x00\n        /* \"todo.sol\":408:425  return tasks_list */\n      dup1\n      sload\n      dup1\n      0x20\n      mul\n      0x20\n      add\n      mload(0x40)\n      swap1\n      dup2\n      add\n      0x40\n      mstore\n      dup1\n      swap3\n      swap2\n      swap1\n      dup2\n      dup2\n      mstore\n      0x20\n      add\n      0x00\n      swap1\n    tag_18:\n      dup3\n      dup3\n      lt\n      iszero\n      tag_19\n      jumpi\n      dup4\n      dup3\n      swap1\n      0x00\n      mstore\n      keccak256(0x00, 0x20)\n      swap1\n      0x03\n      mul\n      add\n      mload(0x40)\n      dup1\n      0x60\n      add\n      0x40\n      mstore\n      swap1\n      dup2\n      0x00\n      dup3\n      add\n      sload\n      dup2\n      mstore\n      0x20\n      add\n      0x01\n      dup3\n      add\n      dup1\n      sload\n      tag_21\n      swap1\n      tag_22\n      jump\t// in\n    tag_21:\n      dup1\n      0x1f\n      add\n      0x20\n      dup1\n      swap2\n      div\n      mul\n      0x20\n      add\n      mload(0x40)\n      swap1\n      dup2\n      add\n      0x40\n      mstore\n      dup1\n      swap3\n      swap2\n      swap1\n      dup2\n      dup2\n      mstore\n      0x20\n      add\n      dup3\n      dup1\n      sload\n      tag_23\n      swap1\n      tag_22\n      jump\t// in\n    tag_23:\n      dup1\n      iszero\n      tag_24\n      jumpi\n      dup1\n      0x1f\n      lt\n      tag_25\n      jumpi\n      0x0100\n      dup1\n      dup4\n      sload\n      div\n      mul\n      dup4\n      mstore\n      swap2\n      0x20\n      add\n      swap2\n      jump(tag_24)\n    tag_25:\n      dup3\n      add\n      swap2\n      swap1\n      0x00\n      mstore\n      keccak256(0x00, 0x20)\n      swap1\n    tag_26:\n      dup2\n      sload\n      dup2\n      mstore\n      swap1\n      0x01\n      add\n      swap1\n      0x20\n      add\n      dup1\n      dup4\n      gt\n      tag_26\n      jumpi\n      dup3\n      swap1\n      sub\n      0x1f\n      and\n      dup3\n      add\n      swap2\n    tag_24:\n      pop\n      pop\n      pop\n      pop\n      pop\n      dup2\n      mstore\n      0x20\n      add\n      0x02\n      dup3\n      add\n      0x00\n      swap1\n      sload\n      swap1\n      0x0100\n      exp\n      swap1\n      div\n      0xff\n      and\n      iszero\n      iszero\n      iszero\n      iszero\n      dup2\n      mstore\n      pop\n      pop\n      dup2\n      mstore\n      0x20\n      add\n      swap1\n      0x01\n      add\n      swap1\n      jump(tag_18)\n    tag_19:\n      pop\n      pop\n      pop\n      pop\n      swap1\n      pop\n        /* \"todo.sol\":341:433  function getTask() external view returns (Task[] memory){\r... */\n      swap1\n      jump\t// out\n    tag_16:\n      dup3\n      dup1\n      sload\n      tag_27\n      swap1\n      tag_22\n      jump\t// in\n    tag_27:\n      swap1\n      0x00\n      mstore\n      keccak256(0x00, 0x20)\n      swap1\n      0x1f\n      add\n      0x20\n      swap1\n      div\n      dup2\n      add\n      swap3\n      dup3\n      tag_29\n      jumpi\n      0x00\n      dup6\n      sstore\n      jump(tag_28)\n    tag_29:\n      dup3\n      0x1f\n      lt\n      tag_30\n      jumpi\n      dup1\n      mload\n      not(0xff)\n      and\n      dup4\n      dup1\n      add\n      or\n      dup6\n      sstore\n      jump(tag_28)\n    tag_30:\n      dup3\n      dup1\n      add\n      0x01\n      add\n      dup6\n      sstore\n      dup3\n      iszero\n      tag_28\n      jumpi\n      swap2\n      dup3\n      add\n    tag_31:\n      dup3\n      dup2\n      gt\n      iszero\n      tag_32\n      jumpi\n      dup3\n      mload\n      dup3\n      sstore\n      swap2\n      0x20\n      add\n      swap2\n      swap1\n      0x01\n      add\n      swap1\n      jump(tag_31)\n    tag_32:\n    tag_28:\n      pop\n      swap1\n      pop\n      tag_33\n      swap2\n      swap1\n      tag_34\n      jump\t// in\n    tag_33:\n      pop\n      swap1\n      jump\t// out\n    tag_34:\n    tag_35:\n      dup1\n      dup3\n      gt\n      iszero\n      tag_36\n      jumpi\n      0x00\n      dup2\n      0x00\n      swap1\n      sstore\n      pop\n      0x01\n      add\n      jump(tag_35)\n    tag_36:\n      pop\n      swap1\n      jump\t// out\n        /* \"#utility.yul\":21:373   */\n    tag_38:\n        /* \"#utility.yul\":79:87   */\n      0x00\n        /* \"#utility.yul\":89:95   */\n      dup1\n        /* \"#utility.yul\":139:142   */\n      dup4\n        /* \"#utility.yul\":132:136   */\n      0x1f\n        /* \"#utility.yul\":124:130   */\n      dup5\n        /* \"#utility.yul\":120:137   */\n      add\n        /* \"#utility.yul\":116:143   */\n      slt\n        /* \"#utility.yul\":106:108   */\n      tag_40\n      jumpi\n        /* \"#utility.yul\":157:158   */\n      0x00\n        /* \"#utility.yul\":154:155   */\n      dup1\n        /* \"#utility.yul\":147:159   */\n      revert\n        /* \"#utility.yul\":106:108   */\n    tag_40:\n        /* \"#utility.yul\":193:199   */\n      dup3\n        /* \"#utility.yul\":180:200   */\n      calldataload\n        /* \"#utility.yul\":170:200   */\n      swap1\n      pop\n        /* \"#utility.yul\":223:241   */\n      0xffffffffffffffff\n        /* \"#utility.yul\":215:221   */\n      dup2\n        /* \"#utility.yul\":212:242   */\n      gt\n        /* \"#utility.yul\":209:211   */\n      iszero\n      tag_41\n      jumpi\n        /* \"#utility.yul\":255:256   */\n      0x00\n        /* \"#utility.yul\":252:253   */\n      dup1\n        /* \"#utility.yul\":245:257   */\n      revert\n        /* \"#utility.yul\":209:211   */\n    tag_41:\n        /* \"#utility.yul\":292:296   */\n      0x20\n        /* \"#utility.yul\":284:290   */\n      dup4\n        /* \"#utility.yul\":280:297   */\n      add\n        /* \"#utility.yul\":268:297   */\n      swap2\n      pop\n        /* \"#utility.yul\":346:349   */\n      dup4\n        /* \"#utility.yul\":338:342   */\n      0x01\n        /* \"#utility.yul\":330:336   */\n      dup3\n        /* \"#utility.yul\":326:343   */\n      mul\n        /* \"#utility.yul\":316:324   */\n      dup4\n        /* \"#utility.yul\":312:344   */\n      add\n        /* \"#utility.yul\":309:350   */\n      gt\n        /* \"#utility.yul\":306:308   */\n      iszero\n      tag_42\n      jumpi\n        /* \"#utility.yul\":363:364   */\n      0x00\n        /* \"#utility.yul\":360:361   */\n      dup1\n        /* \"#utility.yul\":353:365   */\n      revert\n        /* \"#utility.yul\":306:308   */\n    tag_42:\n        /* \"#utility.yul\":96:373   */\n      swap3\n      pop\n      swap3\n      swap1\n      pop\n      jump\t// out\n        /* \"#utility.yul\":379:774   */\n    tag_7:\n        /* \"#utility.yul\":450:456   */\n      0x00\n        /* \"#utility.yul\":458:464   */\n      dup1\n        /* \"#utility.yul\":507:509   */\n      0x20\n        /* \"#utility.yul\":495:504   */\n      dup4\n        /* \"#utility.yul\":486:493   */\n      dup6\n        /* \"#utility.yul\":482:505   */\n      sub\n        /* \"#utility.yul\":478:510   */\n      slt\n        /* \"#utility.yul\":475:477   */\n      iszero\n      tag_44\n      jumpi\n        /* \"#utility.yul\":523:524   */\n      0x00\n        /* \"#utility.yul\":520:521   */\n      dup1\n        /* \"#utility.yul\":513:525   */\n      revert\n        /* \"#utility.yul\":475:477   */\n    tag_44:\n        /* \"#utility.yul\":594:595   */\n      0x00\n        /* \"#utility.yul\":583:592   */\n      dup4\n        /* \"#utility.yul\":579:596   */\n      add\n        /* \"#utility.yul\":566:597   */\n      calldataload\n        /* \"#utility.yul\":624:642   */\n      0xffffffffffffffff\n        /* \"#utility.yul\":616:622   */\n      dup2\n        /* \"#utility.yul\":613:643   */\n      gt\n        /* \"#utility.yul\":610:612   */\n      iszero\n      tag_45\n      jumpi\n        /* \"#utility.yul\":656:657   */\n      0x00\n        /* \"#utility.yul\":653:654   */\n      dup1\n        /* \"#utility.yul\":646:658   */\n      revert\n        /* \"#utility.yul\":610:612   */\n    tag_45:\n        /* \"#utility.yul\":692:757   */\n      tag_46\n        /* \"#utility.yul\":749:756   */\n      dup6\n        /* \"#utility.yul\":740:746   */\n      dup3\n        /* \"#utility.yul\":729:738   */\n      dup7\n        /* \"#utility.yul\":725:747   */\n      add\n        /* \"#utility.yul\":692:757   */\n      tag_38\n      jump\t// in\n    tag_46:\n        /* \"#utility.yul\":674:757   */\n      swap3\n      pop\n      swap3\n      pop\n        /* \"#utility.yul\":537:767   */\n      pop\n        /* \"#utility.yul\":465:774   */\n      swap3\n      pop\n      swap3\n      swap1\n      pop\n      jump\t// out\n        /* \"#utility.yul\":780:1012   */\n    tag_47:\n        /* \"#utility.yul\":887:897   */\n      0x00\n        /* \"#utility.yul\":922:1006   */\n      tag_49\n        /* \"#utility.yul\":1002:1005   */\n      dup4\n        /* \"#utility.yul\":994:1000   */\n      dup4\n        /* \"#utility.yul\":922:1006   */\n      tag_50\n      jump\t// in\n    tag_49:\n        /* \"#utility.yul\":908:1006   */\n      swap1\n      pop\n        /* \"#utility.yul\":898:1012   */\n      swap3\n      swap2\n      pop\n      pop\n      jump\t// out\n        /* \"#utility.yul\":1068:2131   */\n    tag_51:\n        /* \"#utility.yul\":1225:1228   */\n      0x00\n        /* \"#utility.yul\":1254:1327   */\n      tag_53\n        /* \"#utility.yul\":1321:1326   */\n      dup3\n        /* \"#utility.yul\":1254:1327   */\n      tag_54\n      jump\t// in\n    tag_53:\n        /* \"#utility.yul\":1343:1448   */\n      tag_55\n        /* \"#utility.yul\":1441:1447   */\n      dup2\n        /* \"#utility.yul\":1436:1439   */\n      dup6\n        /* \"#utility.yul\":1343:1448   */\n      tag_56\n      jump\t// in\n    tag_55:\n        /* \"#utility.yul\":1336:1448   */\n      swap4\n      pop\n        /* \"#utility.yul\":1474:1477   */\n      dup4\n        /* \"#utility.yul\":1519:1523   */\n      0x20\n        /* \"#utility.yul\":1511:1517   */\n      dup3\n        /* \"#utility.yul\":1507:1524   */\n      mul\n        /* \"#utility.yul\":1502:1505   */\n      dup6\n        /* \"#utility.yul\":1498:1525   */\n      add\n        /* \"#utility.yul\":1549:1624   */\n      tag_57\n        /* \"#utility.yul\":1618:1623   */\n      dup6\n        /* \"#utility.yul\":1549:1624   */\n      tag_58\n      jump\t// in\n    tag_57:\n        /* \"#utility.yul\":1647:1654   */\n      dup1\n        /* \"#utility.yul\":1678:1679   */\n      0x00\n        /* \"#utility.yul\":1663:2086   */\n    tag_59:\n        /* \"#utility.yul\":1688:1694   */\n      dup6\n        /* \"#utility.yul\":1685:1686   */\n      dup2\n        /* \"#utility.yul\":1682:1695   */\n      lt\n        /* \"#utility.yul\":1663:2086   */\n      iszero\n      tag_61\n      jumpi\n        /* \"#utility.yul\":1759:1768   */\n      dup5\n        /* \"#utility.yul\":1753:1757   */\n      dup5\n        /* \"#utility.yul\":1749:1769   */\n      sub\n        /* \"#utility.yul\":1744:1747   */\n      dup10\n        /* \"#utility.yul\":1737:1770   */\n      mstore\n        /* \"#utility.yul\":1810:1816   */\n      dup2\n        /* \"#utility.yul\":1804:1817   */\n      mload\n        /* \"#utility.yul\":1838:1940   */\n      tag_62\n        /* \"#utility.yul\":1935:1939   */\n      dup6\n        /* \"#utility.yul\":1920:1933   */\n      dup3\n        /* \"#utility.yul\":1838:1940   */\n      tag_47\n      jump\t// in\n    tag_62:\n        /* \"#utility.yul\":1830:1940   */\n      swap5\n      pop\n        /* \"#utility.yul\":1963:2042   */\n      tag_63\n        /* \"#utility.yul\":2035:2041   */\n      dup4\n        /* \"#utility.yul\":1963:2042   */\n      tag_64\n      jump\t// in\n    tag_63:\n        /* \"#utility.yul\":1953:2042   */\n      swap3\n      pop\n        /* \"#utility.yul\":2071:2075   */\n      0x20\n        /* \"#utility.yul\":2066:2069   */\n      dup11\n        /* \"#utility.yul\":2062:2076   */\n      add\n        /* \"#utility.yul\":2055:2076   */\n      swap10\n      pop\n        /* \"#utility.yul\":1723:2086   */\n      pop\n        /* \"#utility.yul\":1710:1711   */\n      0x01\n        /* \"#utility.yul\":1707:1708   */\n      dup2\n        /* \"#utility.yul\":1703:1712   */\n      add\n        /* \"#utility.yul\":1698:1712   */\n      swap1\n      pop\n        /* \"#utility.yul\":1663:2086   */\n      jump(tag_59)\n    tag_61:\n        /* \"#utility.yul\":1667:1681   */\n      pop\n        /* \"#utility.yul\":2102:2106   */\n      dup3\n        /* \"#utility.yul\":2095:2106   */\n      swap8\n      pop\n        /* \"#utility.yul\":2122:2125   */\n      dup8\n        /* \"#utility.yul\":2115:2125   */\n      swap6\n      pop\n        /* \"#utility.yul\":1230:2131   */\n      pop\n      pop\n      pop\n      pop\n      pop\n      swap3\n      swap2\n      pop\n      pop\n      jump\t// out\n        /* \"#utility.yul\":2137:2236   */\n    tag_65:\n        /* \"#utility.yul\":2208:2229   */\n      tag_67\n        /* \"#utility.yul\":2223:2228   */\n      dup2\n        /* \"#utility.yul\":2208:2229   */\n      tag_68\n      jump\t// in\n    tag_67:\n        /* \"#utility.yul\":2203:2206   */\n      dup3\n        /* \"#utility.yul\":2196:2230   */\n      mstore\n        /* \"#utility.yul\":2186:2236   */\n      pop\n      pop\n      jump\t// out\n        /* \"#utility.yul\":2242:2586   */\n    tag_69:\n        /* \"#utility.yul\":2320:2323   */\n      0x00\n        /* \"#utility.yul\":2348:2387   */\n      tag_71\n        /* \"#utility.yul\":2381:2386   */\n      dup3\n        /* \"#utility.yul\":2348:2387   */\n      tag_72\n      jump\t// in\n    tag_71:\n        /* \"#utility.yul\":2403:2464   */\n      tag_73\n        /* \"#utility.yul\":2457:2463   */\n      dup2\n        /* \"#utility.yul\":2452:2455   */\n      dup6\n        /* \"#utility.yul\":2403:2464   */\n      tag_74\n      jump\t// in\n    tag_73:\n        /* \"#utility.yul\":2396:2464   */\n      swap4\n      pop\n        /* \"#utility.yul\":2473:2525   */\n      tag_75\n        /* \"#utility.yul\":2518:2524   */\n      dup2\n        /* \"#utility.yul\":2513:2516   */\n      dup6\n        /* \"#utility.yul\":2506:2510   */\n      0x20\n        /* \"#utility.yul\":2499:2504   */\n      dup7\n        /* \"#utility.yul\":2495:2511   */\n      add\n        /* \"#utility.yul\":2473:2525   */\n      tag_76\n      jump\t// in\n    tag_75:\n        /* \"#utility.yul\":2550:2579   */\n      tag_77\n        /* \"#utility.yul\":2572:2578   */\n      dup2\n        /* \"#utility.yul\":2550:2579   */\n      tag_78\n      jump\t// in\n    tag_77:\n        /* \"#utility.yul\":2545:2548   */\n      dup5\n        /* \"#utility.yul\":2541:2580   */\n      add\n        /* \"#utility.yul\":2534:2580   */\n      swap2\n      pop\n        /* \"#utility.yul\":2324:2586   */\n      pop\n      swap3\n      swap2\n      pop\n      pop\n      jump\t// out\n        /* \"#utility.yul\":2638:3395   */\n    tag_50:\n        /* \"#utility.yul\":2735:2738   */\n      0x00\n        /* \"#utility.yul\":2771:2775   */\n      0x60\n        /* \"#utility.yul\":2766:2769   */\n      dup4\n        /* \"#utility.yul\":2762:2776   */\n      add\n        /* \"#utility.yul\":2856:2860   */\n      0x00\n        /* \"#utility.yul\":2849:2854   */\n      dup4\n        /* \"#utility.yul\":2845:2861   */\n      add\n        /* \"#utility.yul\":2839:2862   */\n      mload\n        /* \"#utility.yul\":2875:2938   */\n      tag_80\n        /* \"#utility.yul\":2932:2936   */\n      0x00\n        /* \"#utility.yul\":2927:2930   */\n      dup7\n        /* \"#utility.yul\":2923:2937   */\n      add\n        /* \"#utility.yul\":2909:2921   */\n      dup3\n        /* \"#utility.yul\":2875:2938   */\n      tag_81\n      jump\t// in\n    tag_80:\n        /* \"#utility.yul\":2786:2948   */\n      pop\n        /* \"#utility.yul\":3030:3034   */\n      0x20\n        /* \"#utility.yul\":3023:3028   */\n      dup4\n        /* \"#utility.yul\":3019:3035   */\n      add\n        /* \"#utility.yul\":3013:3036   */\n      mload\n        /* \"#utility.yul\":3083:3086   */\n      dup5\n        /* \"#utility.yul\":3077:3081   */\n      dup3\n        /* \"#utility.yul\":3073:3087   */\n      sub\n        /* \"#utility.yul\":3066:3070   */\n      0x20\n        /* \"#utility.yul\":3061:3064   */\n      dup7\n        /* \"#utility.yul\":3057:3071   */\n      add\n        /* \"#utility.yul\":3050:3088   */\n      mstore\n        /* \"#utility.yul\":3109:3182   */\n      tag_82\n        /* \"#utility.yul\":3177:3181   */\n      dup3\n        /* \"#utility.yul\":3163:3175   */\n      dup3\n        /* \"#utility.yul\":3109:3182   */\n      tag_69\n      jump\t// in\n    tag_82:\n        /* \"#utility.yul\":3101:3182   */\n      swap2\n      pop\n        /* \"#utility.yul\":2958:3193   */\n      pop\n        /* \"#utility.yul\":3282:3286   */\n      0x40\n        /* \"#utility.yul\":3275:3280   */\n      dup4\n        /* \"#utility.yul\":3271:3287   */\n      add\n        /* \"#utility.yul\":3265:3288   */\n      mload\n        /* \"#utility.yul\":3301:3358   */\n      tag_83\n        /* \"#utility.yul\":3352:3356   */\n      0x40\n        /* \"#utility.yul\":3347:3350   */\n      dup7\n        /* \"#utility.yul\":3343:3357   */\n      add\n        /* \"#utility.yul\":3329:3341   */\n      dup3\n        /* \"#utility.yul\":3301:3358   */\n      tag_65\n      jump\t// in\n    tag_83:\n        /* \"#utility.yul\":3203:3368   */\n      pop\n        /* \"#utility.yul\":3385:3389   */\n      dup1\n        /* \"#utility.yul\":3378:3389   */\n      swap2\n      pop\n        /* \"#utility.yul\":2740:3395   */\n      pop\n      swap3\n      swap2\n      pop\n      pop\n      jump\t// out\n        /* \"#utility.yul\":3401:3509   */\n    tag_81:\n        /* \"#utility.yul\":3478:3502   */\n      tag_85\n        /* \"#utility.yul\":3496:3501   */\n      dup2\n        /* \"#utility.yul\":3478:3502   */\n      tag_86\n      jump\t// in\n    tag_85:\n        /* \"#utility.yul\":3473:3476   */\n      dup3\n        /* \"#utility.yul\":3466:3503   */\n      mstore\n        /* \"#utility.yul\":3456:3509   */\n      pop\n      pop\n      jump\t// out\n        /* \"#utility.yul\":3515:3964   */\n    tag_12:\n        /* \"#utility.yul\":3696:3700   */\n      0x00\n        /* \"#utility.yul\":3734:3736   */\n      0x20\n        /* \"#utility.yul\":3723:3732   */\n      dup3\n        /* \"#utility.yul\":3719:3737   */\n      add\n        /* \"#utility.yul\":3711:3737   */\n      swap1\n      pop\n        /* \"#utility.yul\":3783:3792   */\n      dup2\n        /* \"#utility.yul\":3777:3781   */\n      dup2\n        /* \"#utility.yul\":3773:3793   */\n      sub\n        /* \"#utility.yul\":3769:3770   */\n      0x00\n        /* \"#utility.yul\":3758:3767   */\n      dup4\n        /* \"#utility.yul\":3754:3771   */\n      add\n        /* \"#utility.yul\":3747:3794   */\n      mstore\n        /* \"#utility.yul\":3811:3957   */\n      tag_88\n        /* \"#utility.yul\":3952:3956   */\n      dup2\n        /* \"#utility.yul\":3943:3949   */\n      dup5\n        /* \"#utility.yul\":3811:3957   */\n      tag_51\n      jump\t// in\n    tag_88:\n        /* \"#utility.yul\":3803:3957   */\n      swap1\n      pop\n        /* \"#utility.yul\":3701:3964   */\n      swap3\n      swap2\n      pop\n      pop\n      jump\t// out\n        /* \"#utility.yul\":3970:4121   */\n    tag_58:\n        /* \"#utility.yul\":4056:4060   */\n      0x00\n        /* \"#utility.yul\":4079:4082   */\n      dup2\n        /* \"#utility.yul\":4071:4082   */\n      swap1\n      pop\n        /* \"#utility.yul\":4109:4113   */\n      0x20\n        /* \"#utility.yul\":4104:4107   */\n      dup3\n        /* \"#utility.yul\":4100:4114   */\n      add\n        /* \"#utility.yul\":4092:4114   */\n      swap1\n      pop\n        /* \"#utility.yul\":4061:4121   */\n      swap2\n      swap1\n      pop\n      jump\t// out\n        /* \"#utility.yul\":4127:4260   */\n    tag_54:\n        /* \"#utility.yul\":4213:4219   */\n      0x00\n        /* \"#utility.yul\":4247:4252   */\n      dup2\n        /* \"#utility.yul\":4241:4253   */\n      mload\n        /* \"#utility.yul\":4231:4253   */\n      swap1\n      pop\n        /* \"#utility.yul\":4220:4260   */\n      swap2\n      swap1\n      pop\n      jump\t// out\n        /* \"#utility.yul\":4266:4365   */\n    tag_72:\n        /* \"#utility.yul\":4318:4324   */\n      0x00\n        /* \"#utility.yul\":4352:4357   */\n      dup2\n        /* \"#utility.yul\":4346:4358   */\n      mload\n        /* \"#utility.yul\":4336:4358   */\n      swap1\n      pop\n        /* \"#utility.yul\":4325:4365   */\n      swap2\n      swap1\n      pop\n      jump\t// out\n        /* \"#utility.yul\":4371:4503   */\n    tag_64:\n        /* \"#utility.yul\":4460:4464   */\n      0x00\n        /* \"#utility.yul\":4492:4496   */\n      0x20\n        /* \"#utility.yul\":4487:4490   */\n      dup3\n        /* \"#utility.yul\":4483:4497   */\n      add\n        /* \"#utility.yul\":4475:4497   */\n      swap1\n      pop\n        /* \"#utility.yul\":4465:4503   */\n      swap2\n      swap1\n      pop\n      jump\t// out\n        /* \"#utility.yul\":4509:4712   */\n    tag_56:\n        /* \"#utility.yul\":4627:4638   */\n      0x00\n        /* \"#utility.yul\":4661:4667   */\n      dup3\n        /* \"#utility.yul\":4656:4659   */\n      dup3\n        /* \"#utility.yul\":4649:4668   */\n      mstore\n        /* \"#utility.yul\":4701:4705   */\n      0x20\n        /* \"#utility.yul\":4696:4699   */\n      dup3\n        /* \"#utility.yul\":4692:4706   */\n      add\n        /* \"#utility.yul\":4677:4706   */\n      swap1\n      pop\n        /* \"#utility.yul\":4639:4712   */\n      swap3\n      swap2\n      pop\n      pop\n      jump\t// out\n        /* \"#utility.yul\":4718:4877   */\n    tag_74:\n        /* \"#utility.yul\":4792:4803   */\n      0x00\n        /* \"#utility.yul\":4826:4832   */\n      dup3\n        /* \"#utility.yul\":4821:4824   */\n      dup3\n        /* \"#utility.yul\":4814:4833   */\n      mstore\n        /* \"#utility.yul\":4866:4870   */\n      0x20\n        /* \"#utility.yul\":4861:4864   */\n      dup3\n        /* \"#utility.yul\":4857:4871   */\n      add\n        /* \"#utility.yul\":4842:4871   */\n      swap1\n      pop\n        /* \"#utility.yul\":4804:4877   */\n      swap3\n      swap2\n      pop\n      pop\n      jump\t// out\n        /* \"#utility.yul\":4883:4973   */\n    tag_68:\n        /* \"#utility.yul\":4917:4924   */\n      0x00\n        /* \"#utility.yul\":4960:4965   */\n      dup2\n        /* \"#utility.yul\":4953:4966   */\n      iszero\n        /* \"#utility.yul\":4946:4967   */\n      iszero\n        /* \"#utility.yul\":4935:4967   */\n      swap1\n      pop\n        /* \"#utility.yul\":4925:4973   */\n      swap2\n      swap1\n      pop\n      jump\t// out\n        /* \"#utility.yul\":4979:5056   */\n    tag_86:\n        /* \"#utility.yul\":5016:5023   */\n      0x00\n        /* \"#utility.yul\":5045:5050   */\n      dup2\n        /* \"#utility.yul\":5034:5050   */\n      swap1\n      pop\n        /* \"#utility.yul\":5024:5056   */\n      swap2\n      swap1\n      pop\n      jump\t// out\n        /* \"#utility.yul\":5062:5369   */\n    tag_76:\n        /* \"#utility.yul\":5130:5131   */\n      0x00\n        /* \"#utility.yul\":5140:5253   */\n    tag_98:\n        /* \"#utility.yul\":5154:5160   */\n      dup4\n        /* \"#utility.yul\":5151:5152   */\n      dup2\n        /* \"#utility.yul\":5148:5161   */\n      lt\n        /* \"#utility.yul\":5140:5253   */\n      iszero\n      tag_100\n      jumpi\n        /* \"#utility.yul\":5239:5240   */\n      dup1\n        /* \"#utility.yul\":5234:5237   */\n      dup3\n        /* \"#utility.yul\":5230:5241   */\n      add\n        /* \"#utility.yul\":5224:5242   */\n      mload\n        /* \"#utility.yul\":5220:5221   */\n      dup2\n        /* \"#utility.yul\":5215:5218   */\n      dup5\n        /* \"#utility.yul\":5211:5222   */\n      add\n        /* \"#utility.yul\":5204:5243   */\n      mstore\n        /* \"#utility.yul\":5176:5178   */\n      0x20\n        /* \"#utility.yul\":5173:5174   */\n      dup2\n        /* \"#utility.yul\":5169:5179   */\n      add\n        /* \"#utility.yul\":5164:5179   */\n      swap1\n      pop\n        /* \"#utility.yul\":5140:5253   */\n      jump(tag_98)\n    tag_100:\n        /* \"#utility.yul\":5271:5277   */\n      dup4\n        /* \"#utility.yul\":5268:5269   */\n      dup2\n        /* \"#utility.yul\":5265:5278   */\n      gt\n        /* \"#utility.yul\":5262:5264   */\n      iszero\n      tag_101\n      jumpi\n        /* \"#utility.yul\":5351:5352   */\n      0x00\n        /* \"#utility.yul\":5342:5348   */\n      dup5\n        /* \"#utility.yul\":5337:5340   */\n      dup5\n        /* \"#utility.yul\":5333:5349   */\n      add\n        /* \"#utility.yul\":5326:5353   */\n      mstore\n        /* \"#utility.yul\":5262:5264   */\n    tag_101:\n        /* \"#utility.yul\":5111:5369   */\n      pop\n      pop\n      pop\n      pop\n      jump\t// out\n        /* \"#utility.yul\":5375:5695   */\n    tag_22:\n        /* \"#utility.yul\":5419:5425   */\n      0x00\n        /* \"#utility.yul\":5456:5457   */\n      0x02\n        /* \"#utility.yul\":5450:5454   */\n      dup3\n        /* \"#utility.yul\":5446:5458   */\n      div\n        /* \"#utility.yul\":5436:5458   */\n      swap1\n      pop\n        /* \"#utility.yul\":5503:5504   */\n      0x01\n        /* \"#utility.yul\":5497:5501   */\n      dup3\n        /* \"#utility.yul\":5493:5505   */\n      and\n        /* \"#utility.yul\":5524:5542   */\n      dup1\n        /* \"#utility.yul\":5514:5516   */\n      tag_103\n      jumpi\n        /* \"#utility.yul\":5580:5584   */\n      0x7f\n        /* \"#utility.yul\":5572:5578   */\n      dup3\n        /* \"#utility.yul\":5568:5585   */\n      and\n        /* \"#utility.yul\":5558:5585   */\n      swap2\n      pop\n        /* \"#utility.yul\":5514:5516   */\n    tag_103:\n        /* \"#utility.yul\":5642:5644   */\n      0x20\n        /* \"#utility.yul\":5634:5640   */\n      dup3\n        /* \"#utility.yul\":5631:5645   */\n      lt\n        /* \"#utility.yul\":5611:5629   */\n      dup2\n        /* \"#utility.yul\":5608:5646   */\n      eq\n        /* \"#utility.yul\":5605:5607   */\n      iszero\n      tag_104\n      jumpi\n        /* \"#utility.yul\":5661:5679   */\n      tag_105\n      tag_106\n      jump\t// in\n    tag_105:\n        /* \"#utility.yul\":5605:5607   */\n    tag_104:\n        /* \"#utility.yul\":5426:5695   */\n      pop\n      swap2\n      swap1\n      pop\n      jump\t// out\n        /* \"#utility.yul\":5701:5881   */\n    tag_106:\n        /* \"#utility.yul\":5749:5826   */\n      0x4e487b7100000000000000000000000000000000000000000000000000000000\n        /* \"#utility.yul\":5746:5747   */\n      0x00\n        /* \"#utility.yul\":5739:5827   */\n      mstore\n        /* \"#utility.yul\":5846:5850   */\n      0x22\n        /* \"#utility.yul\":5843:5844   */\n      0x04\n        /* \"#utility.yul\":5836:5851   */\n      mstore\n        /* \"#utility.yul\":5870:5874   */\n      0x24\n        /* \"#utility.yul\":5867:5868   */\n      0x00\n        /* \"#utility.yul\":5860:5875   */\n      revert\n        /* \"#utility.yul\":5887:5989   */\n    tag_78:\n        /* \"#utility.yul\":5928:5934   */\n      0x00\n        /* \"#utility.yul\":5979:5981   */\n      0x1f\n        /* \"#utility.yul\":5975:5982   */\n      not\n        /* \"#utility.yul\":5970:5972   */\n      0x1f\n        /* \"#utility.yul\":5963:5968   */\n      dup4\n        /* \"#utility.yul\":5959:5973   */\n      add\n        /* \"#utility.yul\":5955:5983   */\n      and\n        /* \"#utility.yul\":5945:5983   */\n      swap1\n      pop\n        /* \"#utility.yul\":5935:5989   */\n      swap2\n      swap1\n      pop\n      jump\t// out\n\n    auxdata: 0xa264697066735822122049406ea208adb94302d2b4f39723234fb989ef363f76e1b7ad851e401be0da1264736f6c63430008040033\n}\n",
				"bytecode": {
					"linkReferences": {},
					"object": "608060405234801561001057600080fd5b50610639806100206000396000f3fe608060405234801561001057600080fd5b50600436106100365760003560e01c8063672385621461003b578063a31662d214610057575b600080fd5b6100556004803603810190610050919061035c565b610075565b005b61005f610159565b60405161006c91906104d1565b60405180910390f35b6000808054905090506000604051806060016040528083815260200185858080601f016020809104026020016040519081016040528093929190818152602001838380828437600081840152601f19601f82011690508083019250505050505050815260200160001515815250908060018154018082558091505060019003906000526020600020906003020160009091909190915060008201518160000155602082015181600101908051906020019061013192919061026f565b5060408201518160020160006101000a81548160ff0219169083151502179055505050505050565b60606000805480602002602001604051908101604052809291908181526020016000905b828210156102665783829060005260206000209060030201604051806060016040529081600082015481526020016001820180546101ba90610591565b80601f01602080910402602001604051908101604052809291908181526020018280546101e690610591565b80156102335780601f1061020857610100808354040283529160200191610233565b820191906000526020600020905b81548152906001019060200180831161021657829003601f168201915b505050505081526020016002820160009054906101000a900460ff1615151515815250508152602001906001019061017d565b50505050905090565b82805461027b90610591565b90600052602060002090601f01602090048101928261029d57600085556102e4565b82601f106102b657805160ff19168380011785556102e4565b828001600101855582156102e4579182015b828111156102e35782518255916020019190600101906102c8565b5b5090506102f191906102f5565b5090565b5b8082111561030e5760008160009055506001016102f6565b5090565b60008083601f84011261032457600080fd5b8235905067ffffffffffffffff81111561033d57600080fd5b60208301915083600182028301111561035557600080fd5b9250929050565b6000806020838503121561036f57600080fd5b600083013567ffffffffffffffff81111561038957600080fd5b61039585828601610312565b92509250509250929050565b60006103ad8383610472565b905092915050565b60006103c082610503565b6103ca8185610526565b9350836020820285016103dc856104f3565b8060005b8581101561041857848403895281516103f985826103a1565b945061040483610519565b925060208a019950506001810190506103e0565b50829750879550505050505092915050565b61043381610548565b82525050565b60006104448261050e565b61044e8185610537565b935061045e81856020860161055e565b610467816105f2565b840191505092915050565b600060608301600083015161048a60008601826104c2565b50602083015184820360208601526104a28282610439565b91505060408301516104b7604086018261042a565b508091505092915050565b6104cb81610554565b82525050565b600060208201905081810360008301526104eb81846103b5565b905092915050565b6000819050602082019050919050565b600081519050919050565b600081519050919050565b6000602082019050919050565b600082825260208201905092915050565b600082825260208201905092915050565b60008115159050919050565b6000819050919050565b60005b8381101561057c578082015181840152602081019050610561565b8381111561058b576000848401525b50505050565b600060028204905060018216806105a957607f821691505b602082108114156105bd576105bc6105c3565b5b50919050565b7f4e487b7100000000000000000000000000000000000000000000000000000000600052602260045260246000fd5b6000601f19601f830116905091905056fea264697066735822122049406ea208adb94302d2b4f39723234fb989ef363f76e1b7ad851e401be0da1264736f6c63430008040033",
					"opcodes": "PUSH1 0x80 PUSH1 0x40 MSTORE CALLVALUE DUP1 ISZERO PUSH2 0x10 JUMPI PUSH1 0x0 DUP1 REVERT JUMPDEST POP PUSH2 0x639 DUP1 PUSH2 0x20 PUSH1 0x0 CODECOPY PUSH1 0x0 RETURN INVALID PUSH1 0x80 PUSH1 0x40 MSTORE CALLVALUE DUP1 ISZERO PUSH2 0x10 JUMPI PUSH1 0x0 DUP1 REVERT JUMPDEST POP PUSH1 0x4 CALLDATASIZE LT PUSH2 0x36 JUMPI PUSH1 0x0 CALLDATALOAD PUSH1 0xE0 SHR DUP1 PUSH4 0x67238562 EQ PUSH2 0x3B JUMPI DUP1 PUSH4 0xA31662D2 EQ PUSH2 0x57 JUMPI JUMPDEST PUSH1 0x0 DUP1 REVERT JUMPDEST PUSH2 0x55 PUSH1 0x4 DUP1 CALLDATASIZE SUB DUP2 ADD SWAP1 PUSH2 0x50 SWAP2 SWAP1 PUSH2 0x35C JUMP JUMPDEST PUSH2 0x75 JUMP JUMPDEST STOP JUMPDEST PUSH2 0x5F PUSH2 0x159 JUMP JUMPDEST PUSH1 0x40 MLOAD PUSH2 0x6C SWAP2 SWAP1 PUSH2 0x4D1 JUMP JUMPDEST PUSH1 0x40 MLOAD DUP1 SWAP2 SUB SWAP1 RETURN JUMPDEST PUSH1 0x0 DUP1 DUP1 SLOAD SWAP1 POP SWAP1 POP PUSH1 0x0 PUSH1 0x40 MLOAD DUP1 PUSH1 0x60 ADD PUSH1 0x40 MSTORE DUP1 DUP4 DUP2 MSTORE PUSH1 0x20 ADD DUP6 DUP6 DUP1 DUP1 PUSH1 0x1F ADD PUSH1 0x20 DUP1 SWAP2 DIV MUL PUSH1 0x20 ADD PUSH1 0x40 MLOAD SWAP1 DUP2 ADD PUSH1 0x40 MSTORE DUP1 SWAP4 SWAP3 SWAP2 SWAP1 DUP2 DUP2 MSTORE PUSH1 0x20 ADD DUP4 DUP4 DUP1 DUP3 DUP5 CALLDATACOPY PUSH1 0x0 DUP2 DUP5 ADD MSTORE PUSH1 0x1F NOT PUSH1 0x1F DUP3 ADD AND SWAP1 POP DUP1 DUP4 ADD SWAP3 POP POP POP POP POP POP POP DUP2 MSTORE PUSH1 0x20 ADD PUSH1 0x0 ISZERO ISZERO DUP2 MSTORE POP SWAP1 DUP1 PUSH1 0x1 DUP2 SLOAD ADD DUP1 DUP3 SSTORE DUP1 SWAP2 POP POP PUSH1 0x1 SWAP1 SUB SWAP1 PUSH1 0x0 MSTORE PUSH1 0x20 PUSH1 0x0 KECCAK256 SWAP1 PUSH1 0x3 MUL ADD PUSH1 0x0 SWAP1 SWAP2 SWAP1 SWAP2 SWAP1 SWAP2 POP PUSH1 0x0 DUP3 ADD MLOAD DUP2 PUSH1 0x0 ADD SSTORE PUSH1 0x20 DUP3 ADD MLOAD DUP2 PUSH1 0x1 ADD SWAP1 DUP1 MLOAD SWAP1 PUSH1 0x20 ADD SWAP1 PUSH2 0x131 SWAP3 SWAP2 SWAP1 PUSH2 0x26F JUMP JUMPDEST POP PUSH1 0x40 DUP3 ADD MLOAD DUP2 PUSH1 0x2 ADD PUSH1 0x0 PUSH2 0x100 EXP DUP2 SLOAD DUP2 PUSH1 0xFF MUL NOT AND SWAP1 DUP4 ISZERO ISZERO MUL OR SWAP1 SSTORE POP POP POP POP POP POP JUMP JUMPDEST PUSH1 0x60 PUSH1 0x0 DUP1 SLOAD DUP1 PUSH1 0x20 MUL PUSH1 0x20 ADD PUSH1 0x40 MLOAD SWAP1 DUP2 ADD PUSH1 0x40 MSTORE DUP1 SWAP3 SWAP2 SWAP1 DUP2 DUP2 MSTORE PUSH1 0x20 ADD PUSH1 0x0 SWAP1 JUMPDEST DUP3 DUP3 LT ISZERO PUSH2 0x266 JUMPI DUP4 DUP3 SWAP1 PUSH1 0x0 MSTORE PUSH1 0x20 PUSH1 0x0 KECCAK256 SWAP1 PUSH1 0x3 MUL ADD PUSH1 0x40 MLOAD DUP1 PUSH1 0x60 ADD PUSH1 0x40 MSTORE SWAP1 DUP2 PUSH1 0x0 DUP3 ADD SLOAD DUP2 MSTORE PUSH1 0x20 ADD PUSH1 0x1 DUP3 ADD DUP1 SLOAD PUSH2 0x1BA SWAP1 PUSH2 0x591 JUMP JUMPDEST DUP1 PUSH1 0x1F ADD PUSH1 0x20 DUP1 SWAP2 DIV MUL PUSH1 0x20 ADD PUSH1 0x40 MLOAD SWAP1 DUP2 ADD PUSH1 0x40 MSTORE DUP1 SWAP3 SWAP2 SWAP1 DUP2 DUP2 MSTORE PUSH1 0x20 ADD DUP3 DUP1 SLOAD PUSH2 0x1E6 SWAP1 PUSH2 0x591 JUMP JUMPDEST DUP1 ISZERO PUSH2 0x233 JUMPI DUP1 PUSH1 0x1F LT PUSH2 0x208 JUMPI PUSH2 0x100 DUP1 DUP4 SLOAD DIV MUL DUP4 MSTORE SWAP2 PUSH1 0x20 ADD SWAP2 PUSH2 0x233 JUMP JUMPDEST DUP3 ADD SWAP2 SWAP1 PUSH1 0x0 MSTORE PUSH1 0x20 PUSH1 0x0 KECCAK256 SWAP1 JUMPDEST DUP2 SLOAD DUP2 MSTORE SWAP1 PUSH1 0x1 ADD SWAP1 PUSH1 0x20 ADD DUP1 DUP4 GT PUSH2 0x216 JUMPI DUP3 SWAP1 SUB PUSH1 0x1F AND DUP3 ADD SWAP2 JUMPDEST POP POP POP POP POP DUP2 MSTORE PUSH1 0x20 ADD PUSH1 0x2 DUP3 ADD PUSH1 0x0 SWAP1 SLOAD SWAP1 PUSH2 0x100 EXP SWAP1 DIV PUSH1 0xFF AND ISZERO ISZERO ISZERO ISZERO DUP2 MSTORE POP POP DUP2 MSTORE PUSH1 0x20 ADD SWAP1 PUSH1 0x1 ADD SWAP1 PUSH2 0x17D JUMP JUMPDEST POP POP POP POP SWAP1 POP SWAP1 JUMP JUMPDEST DUP3 DUP1 SLOAD PUSH2 0x27B SWAP1 PUSH2 0x591 JUMP JUMPDEST SWAP1 PUSH1 0x0 MSTORE PUSH1 0x20 PUSH1 0x0 KECCAK256 SWAP1 PUSH1 0x1F ADD PUSH1 0x20 SWAP1 DIV DUP2 ADD SWAP3 DUP3 PUSH2 0x29D JUMPI PUSH1 0x0 DUP6 SSTORE PUSH2 0x2E4 JUMP JUMPDEST DUP3 PUSH1 0x1F LT PUSH2 0x2B6 JUMPI DUP1 MLOAD PUSH1 0xFF NOT AND DUP4 DUP1 ADD OR DUP6 SSTORE PUSH2 0x2E4 JUMP JUMPDEST DUP3 DUP1 ADD PUSH1 0x1 ADD DUP6 SSTORE DUP3 ISZERO PUSH2 0x2E4 JUMPI SWAP2 DUP3 ADD JUMPDEST DUP3 DUP2 GT ISZERO PUSH2 0x2E3 JUMPI DUP3 MLOAD DUP3 SSTORE SWAP2 PUSH1 0x20 ADD SWAP2 SWAP1 PUSH1 0x1 ADD SWAP1 PUSH2 0x2C8 JUMP JUMPDEST JUMPDEST POP SWAP1 POP PUSH2 0x2F1 SWAP2 SWAP1 PUSH2 0x2F5 JUMP JUMPDEST POP SWAP1 JUMP JUMPDEST JUMPDEST DUP1 DUP3 GT ISZERO PUSH2 0x30E JUMPI PUSH1 0x0 DUP2 PUSH1 0x0 SWAP1 SSTORE POP PUSH1 0x1 ADD PUSH2 0x2F6 JUMP JUMPDEST POP SWAP1 JUMP JUMPDEST PUSH1 0x0 DUP1 DUP4 PUSH1 0x1F DUP5 ADD SLT PUSH2 0x324 JUMPI PUSH1 0x0 DUP1 REVERT JUMPDEST DUP3 CALLDATALOAD SWAP1 POP PUSH8 0xFFFFFFFFFFFFFFFF DUP2 GT ISZERO PUSH2 0x33D JUMPI PUSH1 0x0 DUP1 REVERT JUMPDEST PUSH1 0x20 DUP4 ADD SWAP2 POP DUP4 PUSH1 0x1 DUP3 MUL DUP4 ADD GT ISZERO PUSH2 0x355 JUMPI PUSH1 0x0 DUP1 REVERT JUMPDEST SWAP3 POP SWAP3 SWAP1 POP JUMP JUMPDEST PUSH1 0x0 DUP1 PUSH1 0x20 DUP4 DUP6 SUB SLT ISZERO PUSH2 0x36F JUMPI PUSH1 0x0 DUP1 REVERT JUMPDEST PUSH1 0x0 DUP4 ADD CALLDATALOAD PUSH8 0xFFFFFFFFFFFFFFFF DUP2 GT ISZERO PUSH2 0x389 JUMPI PUSH1 0x0 DUP1 REVERT JUMPDEST PUSH2 0x395 DUP6 DUP3 DUP7 ADD PUSH2 0x312 JUMP JUMPDEST SWAP3 POP SWAP3 POP POP SWAP3 POP SWAP3 SWAP1 POP JUMP JUMPDEST PUSH1 0x0 PUSH2 0x3AD DUP4 DUP4 PUSH2 0x472 JUMP JUMPDEST SWAP1 POP SWAP3 SWAP2 POP POP JUMP JUMPDEST PUSH1 0x0 PUSH2 0x3C0 DUP3 PUSH2 0x503 JUMP JUMPDEST PUSH2 0x3CA DUP2 DUP6 PUSH2 0x526 JUMP JUMPDEST SWAP4 POP DUP4 PUSH1 0x20 DUP3 MUL DUP6 ADD PUSH2 0x3DC DUP6 PUSH2 0x4F3 JUMP JUMPDEST DUP1 PUSH1 0x0 JUMPDEST DUP6 DUP2 LT ISZERO PUSH2 0x418 JUMPI DUP5 DUP5 SUB DUP10 MSTORE DUP2 MLOAD PUSH2 0x3F9 DUP6 DUP3 PUSH2 0x3A1 JUMP JUMPDEST SWAP5 POP PUSH2 0x404 DUP4 PUSH2 0x519 JUMP JUMPDEST SWAP3 POP PUSH1 0x20 DUP11 ADD SWAP10 POP POP PUSH1 0x1 DUP2 ADD SWAP1 POP PUSH2 0x3E0 JUMP JUMPDEST POP DUP3 SWAP8 POP DUP8 SWAP6 POP POP POP POP POP POP SWAP3 SWAP2 POP POP JUMP JUMPDEST PUSH2 0x433 DUP2 PUSH2 0x548 JUMP JUMPDEST DUP3 MSTORE POP POP JUMP JUMPDEST PUSH1 0x0 PUSH2 0x444 DUP3 PUSH2 0x50E JUMP JUMPDEST PUSH2 0x44E DUP2 DUP6 PUSH2 0x537 JUMP JUMPDEST SWAP4 POP PUSH2 0x45E DUP2 DUP6 PUSH1 0x20 DUP7 ADD PUSH2 0x55E JUMP JUMPDEST PUSH2 0x467 DUP2 PUSH2 0x5F2 JUMP JUMPDEST DUP5 ADD SWAP2 POP POP SWAP3 SWAP2 POP POP JUMP JUMPDEST PUSH1 0x0 PUSH1 0x60 DUP4 ADD PUSH1 0x0 DUP4 ADD MLOAD PUSH2 0x48A PUSH1 0x0 DUP7 ADD DUP3 PUSH2 0x4C2 JUMP JUMPDEST POP PUSH1 0x20 DUP4 ADD MLOAD DUP5 DUP3 SUB PUSH1 0x20 DUP7 ADD MSTORE PUSH2 0x4A2 DUP3 DUP3 PUSH2 0x439 JUMP JUMPDEST SWAP2 POP POP PUSH1 0x40 DUP4 ADD MLOAD PUSH2 0x4B7 PUSH1 0x40 DUP7 ADD DUP3 PUSH2 0x42A JUMP JUMPDEST POP DUP1 SWAP2 POP POP SWAP3 SWAP2 POP POP JUMP JUMPDEST PUSH2 0x4CB DUP2 PUSH2 0x554 JUMP JUMPDEST DUP3 MSTORE POP POP JUMP JUMPDEST PUSH1 0x0 PUSH1 0x20 DUP3 ADD SWAP1 POP DUP2 DUP2 SUB PUSH1 0x0 DUP4 ADD MSTORE PUSH2 0x4EB DUP2 DUP5 PUSH2 0x3B5 JUMP JUMPDEST SWAP1 POP SWAP3 SWAP2 POP POP JUMP JUMPDEST PUSH1 0x0 DUP2 SWAP1 POP PUSH1 0x20 DUP3 ADD SWAP1 POP SWAP2 SWAP1 POP JUMP JUMPDEST PUSH1 0x0 DUP2 MLOAD SWAP1 POP SWAP2 SWAP1 POP JUMP JUMPDEST PUSH1 0x0 DUP2 MLOAD SWAP1 POP SWAP2 SWAP1 POP JUMP JUMPDEST PUSH1 0x0 PUSH1 0x20 DUP3 ADD SWAP1 POP SWAP2 SWAP1 POP JUMP JUMPDEST PUSH1 0x0 DUP3 DUP3 MSTORE PUSH1 0x20 DUP3 ADD SWAP1 POP SWAP3 SWAP2 POP POP JUMP JUMPDEST PUSH1 0x0 DUP3 DUP3 MSTORE PUSH1 0x20 DUP3 ADD SWAP1 POP SWAP3 SWAP2 POP POP JUMP JUMPDEST PUSH1 0x0 DUP2 ISZERO ISZERO SWAP1 POP SWAP2 SWAP1 POP JUMP JUMPDEST PUSH1 0x0 DUP2 SWAP1 POP SWAP2 SWAP1 POP JUMP JUMPDEST PUSH1 0x0 JUMPDEST DUP4 DUP2 LT ISZERO PUSH2 0x57C JUMPI DUP1 DUP3 ADD MLOAD DUP2 DUP5 ADD MSTORE PUSH1 0x20 DUP2 ADD SWAP1 POP PUSH2 0x561 JUMP JUMPDEST DUP4 DUP2 GT ISZERO PUSH2 0x58B JUMPI PUSH1 0x0 DUP5 DUP5 ADD MSTORE JUMPDEST POP POP POP POP JUMP JUMPDEST PUSH1 0x0 PUSH1 0x2 DUP3 DIV SWAP1 POP PUSH1 0x1 DUP3 AND DUP1 PUSH2 0x5A9 JUMPI PUSH1 0x7F DUP3 AND SWAP2 POP JUMPDEST PUSH1 0x20 DUP3 LT DUP2 EQ ISZERO PUSH2 0x5BD JUMPI PUSH2 0x5BC PUSH2 0x5C3 JUMP JUMPDEST JUMPDEST POP SWAP2 SWAP1 POP JUMP JUMPDEST PUSH32 0x4E487B7100000000000000000000000000000000000000000000000000000000 PUSH1 0x0 MSTORE PUSH1 0x22 PUSH1 0x4 MSTORE PUSH1 0x24 PUSH1 0x0 REVERT JUMPDEST PUSH1 0x0 PUSH1 0x1F NOT PUSH1 0x1F DUP4 ADD AND SWAP1 POP SWAP2 SWAP1 POP JUMP INVALID LOG2 PUSH5 0x6970667358 0x22 SLT KECCAK256 0x49 BLOCKHASH PUSH15 0xA208ADB94302D2B4F39723234FB989 0xEF CALLDATASIZE EXTCODEHASH PUSH23 0xE1B7AD851E401BE0DA1264736F6C634300080400330000 "
				},
				"gasEstimates": {
					"creation": {
						"codeDepositCost": "318600",
						"executionCost": "355",
						"totalCost": "318955"
					},
					"external": {
						"addTask(string)": "infinite",
						"getTask()": "infinite"
					}
				},
				"methodIdentifiers": {
					"addTask(string)": "67238562",
					"getTask()": "a31662d2"
				}
			},
			"storageLayout": {
				"storage": [
					{
						"astId": 12,
						"contract": "todo.sol:Tasks",
						"label": "tasks_list",
						"offset": 0,
						"slot": "0",
						"type": "t_array(t_struct(Task)8_storage)dyn_storage"
					}
				],
				"types": {
					"t_array(t_struct(Task)8_storage)dyn_storage": {
						"base": "t_struct(Task)8_storage",
						"encoding": "dynamic_array",
						"label": "struct Tasks.Task[]",
						"numberOfBytes": "32"
					},
					"t_bool": {
						"encoding": "inplace",
						"label": "bool",
						"numberOfBytes": "1"
					},
					"t_string_storage": {
						"encoding": "bytes",
						"label": "string",
						"numberOfBytes": "32"
					},
					"t_struct(Task)8_storage": {
						"encoding": "inplace",
						"label": "struct Tasks.Task",
						"members": [
							{
								"astId": 3,
								"contract": "todo.sol:Tasks",
								"label": "id",
								"offset": 0,
								"slot": "0",
								"type": "t_uint256"
							},
							{
								"astId": 5,
								"contract": "todo.sol:Tasks",
								"label": "task",
								"offset": 0,
								"slot": "1",
								"type": "t_string_storage"
							},
							{
								"astId": 7,
								"contract": "todo.sol:Tasks",
								"label": "isCompleted",
								"offset": 0,
								"slot": "2",
								"type": "t_bool"
							}
						],
						"numberOfBytes": "96"
					},
					"t_uint256": {
						"encoding": "inplace",
						"label": "uint256",
						"numberOfBytes": "32"
					}
				}
			},
			"userdoc": {
				"kind": "user",
				"methods": {},
				"version": 1
			}
		}
	}
}