{
	"todo.sol": {
		"Tasks": {
			"abi": [
				{
					"inputs": [
						{
							"internalType": "string",
							"name": "task_data",
							"type": "string"
						}
					],
					"name": "addTask",
					"outputs": [],
					"stateMutability": "nonpayable",
					"type": "function"
				},
				{
					"inputs": [
						{
							"internalType": "uint256",
							"name": "index",
							"type": "uint256"
						}
					],
					"name": "getTaskByIndex",
					"outputs": [
						{
							"components": [
								{
									"internalType": "uint256",
									"name": "id",
									"type": "uint256"
								},
								{
									"internalType": "string",
									"name": "task",
									"type": "string"
								},
								{
									"internalType": "bool",
									"name": "isCompleted",
									"type": "bool"
								}
							],
							"internalType": "struct Tasks.Task",
							"name": "",
							"type": "tuple"
						}
					],
					"stateMutability": "view",
					"type": "function"
				},
				{
					"inputs": [],
					"name": "getTasks",
					"outputs": [
						{
							"components": [
								{
									"internalType": "uint256",
									"name": "id",
									"type": "uint256"
								},
								{
									"internalType": "string",
									"name": "task",
									"type": "string"
								},
								{
									"internalType": "bool",
									"name": "isCompleted",
									"type": "bool"
								}
							],
							"internalType": "struct Tasks.Task[]",
							"name": "",
							"type": "tuple[]"
						}
					],
					"stateMutability": "view",
					"type": "function"
				}
			],
			"devdoc": {
				"kind": "dev",
				"methods": {},
				"version": 1
			},
			"evm": {
				"assembly": "    /* \"todo.sol\":26:559  contract Tasks{\r... */\n  mstore(0x40, 0x80)\n  callvalue\n  dup1\n  iszero\n  tag_1\n  jumpi\n  0x00\n  dup1\n  revert\ntag_1:\n  pop\n  dataSize(sub_0)\n  dup1\n  dataOffset(sub_0)\n  0x00\n  codecopy\n  0x00\n  return\nstop\n\nsub_0: assembly {\n        /* \"todo.sol\":26:559  contract Tasks{\r... */\n      mstore(0x40, 0x80)\n      callvalue\n      dup1\n      iszero\n      tag_1\n      jumpi\n      0x00\n      dup1\n      revert\n    tag_1:\n      pop\n      jumpi(tag_2, lt(calldatasize, 0x04))\n      shr(0xe0, calldataload(0x00))\n      dup1\n      0x04a87e38\n      eq\n      tag_3\n      jumpi\n      dup1\n      0x5b8ca16f\n      eq\n      tag_4\n      jumpi\n      dup1\n      0x67238562\n      eq\n      tag_5\n      jumpi\n    tag_2:\n      0x00\n      dup1\n      revert\n        /* \"todo.sol\":341:434  function getTasks() external view returns (Task[] memory){\r... */\n    tag_3:\n      tag_6\n      tag_7\n      jump\t// in\n    tag_6:\n      mload(0x40)\n      tag_8\n      swap2\n      swap1\n      tag_9\n      jump\t// in\n    tag_8:\n      mload(0x40)\n      dup1\n      swap2\n      sub\n      swap1\n      return\n        /* \"todo.sol\":442:556  function getTaskByIndex(uint index) external view returns (Task memory){\r... */\n    tag_4:\n      tag_10\n      0x04\n      dup1\n      calldatasize\n      sub\n      dup2\n      add\n      swap1\n      tag_11\n      swap2\n      swap1\n      tag_12\n      jump\t// in\n    tag_11:\n      tag_13\n      jump\t// in\n    tag_10:\n      mload(0x40)\n      tag_14\n      swap2\n      swap1\n      tag_15\n      jump\t// in\n    tag_14:\n      mload(0x40)\n      dup1\n      swap2\n      sub\n      swap1\n      return\n        /* \"todo.sol\":181:333  function addTask(string calldata task_data) external{\r... */\n    tag_5:\n      tag_16\n      0x04\n      dup1\n      calldatasize\n      sub\n      dup2\n      add\n      swap1\n      tag_17\n      swap2\n      swap1\n      tag_18\n      jump\t// in\n    tag_17:\n      tag_19\n      jump\t// in\n    tag_16:\n      stop\n        /* \"todo.sol\":341:434  function getTasks() external view returns (Task[] memory){\r... */\n    tag_7:\n        /* \"todo.sol\":384:397  Task[] memory */\n      0x60\n        /* \"todo.sol\":416:426  tasks_list */\n      0x00\n        /* \"todo.sol\":409:426  return tasks_list */\n      dup1\n      sload\n      dup1\n      0x20\n      mul\n      0x20\n      add\n      mload(0x40)\n      swap1\n      dup2\n      add\n      0x40\n      mstore\n      dup1\n      swap3\n      swap2\n      swap1\n      dup2\n      dup2\n      mstore\n      0x20\n      add\n      0x00\n      swap1\n    tag_21:\n      dup3\n      dup3\n      lt\n      iszero\n      tag_22\n      jumpi\n      dup4\n      dup3\n      swap1\n      0x00\n      mstore\n      keccak256(0x00, 0x20)\n      swap1\n      0x03\n      mul\n      add\n      mload(0x40)\n      dup1\n      0x60\n      add\n      0x40\n      mstore\n      swap1\n      dup2\n      0x00\n      dup3\n      add\n      sload\n      dup2\n      mstore\n      0x20\n      add\n      0x01\n      dup3\n      add\n      dup1\n      sload\n      tag_24\n      swap1\n      tag_25\n      jump\t// in\n    tag_24:\n      dup1\n      0x1f\n      add\n      0x20\n      dup1\n      swap2\n      div\n      mul\n      0x20\n      add\n      mload(0x40)\n      swap1\n      dup2\n      add\n      0x40\n      mstore\n      dup1\n      swap3\n      swap2\n      swap1\n      dup2\n      dup2\n      mstore\n      0x20\n      add\n      dup3\n      dup1\n      sload\n      tag_26\n      swap1\n      tag_25\n      jump\t// in\n    tag_26:\n      dup1\n      iszero\n      tag_27\n      jumpi\n      dup1\n      0x1f\n      lt\n      tag_28\n      jumpi\n      0x0100\n      dup1\n      dup4\n      sload\n      div\n      mul\n      dup4\n      mstore\n      swap2\n      0x20\n      add\n      swap2\n      jump(tag_27)\n    tag_28:\n      dup3\n      add\n      swap2\n      swap1\n      0x00\n      mstore\n      keccak256(0x00, 0x20)\n      swap1\n    tag_29:\n      dup2\n      sload\n      dup2\n      mstore\n      swap1\n      0x01\n      add\n      swap1\n      0x20\n      add\n      dup1\n      dup4\n      gt\n      tag_29\n      jumpi\n      dup3\n      swap1\n      sub\n      0x1f\n      and\n      dup3\n      add\n      swap2\n    tag_27:\n      pop\n      pop\n      pop\n      pop\n      pop\n      dup2\n      mstore\n      0x20\n      add\n      0x02\n      dup3\n      add\n      0x00\n      swap1\n      sload\n      swap1\n      0x0100\n      exp\n      swap1\n      div\n      0xff\n      and\n      iszero\n      iszero\n      iszero\n      iszero\n      dup2\n      mstore\n      pop\n      pop\n      dup2\n      mstore\n      0x20\n      add\n      swap1\n      0x01\n      add\n      swap1\n      jump(tag_21)\n    tag_22:\n      pop\n      pop\n      pop\n      pop\n      swap1\n      pop\n        /* \"todo.sol\":341:434  function getTasks() external view returns (Task[] memory){\r... */\n      swap1\n      jump\t// out\n        /* \"todo.sol\":442:556  function getTaskByIndex(uint index) external view returns (Task memory){\r... */\n    tag_13:\n        /* \"todo.sol\":501:512  Task memory */\n      tag_30\n      tag_31\n      jump\t// in\n    tag_30:\n        /* \"todo.sol\":531:541  tasks_list */\n      0x00\n        /* \"todo.sol\":542:547  index */\n      dup3\n        /* \"todo.sol\":531:548  tasks_list[index] */\n      dup2\n      sload\n      dup2\n      lt\n      tag_33\n      jumpi\n      mstore(0x00, 0x4e487b7100000000000000000000000000000000000000000000000000000000)\n      mstore(0x04, 0x32)\n      revert(0x00, 0x24)\n    tag_33:\n      swap1\n      0x00\n      mstore\n      keccak256(0x00, 0x20)\n      swap1\n      0x03\n      mul\n      add\n        /* \"todo.sol\":524:548  return tasks_list[index] */\n      mload(0x40)\n      dup1\n      0x60\n      add\n      0x40\n      mstore\n      swap1\n      dup2\n      0x00\n      dup3\n      add\n      sload\n      dup2\n      mstore\n      0x20\n      add\n      0x01\n      dup3\n      add\n      dup1\n      sload\n      tag_35\n      swap1\n      tag_25\n      jump\t// in\n    tag_35:\n      dup1\n      0x1f\n      add\n      0x20\n      dup1\n      swap2\n      div\n      mul\n      0x20\n      add\n      mload(0x40)\n      swap1\n      dup2\n      add\n      0x40\n      mstore\n      dup1\n      swap3\n      swap2\n      swap1\n      dup2\n      dup2\n      mstore\n      0x20\n      add\n      dup3\n      dup1\n      sload\n      tag_36\n      swap1\n      tag_25\n      jump\t// in\n    tag_36:\n      dup1\n      iszero\n      tag_37\n      jumpi\n      dup1\n      0x1f\n      lt\n      tag_38\n      jumpi\n      0x0100\n      dup1\n      dup4\n      sload\n      div\n      mul\n      dup4\n      mstore\n      swap2\n      0x20\n      add\n      swap2\n      jump(tag_37)\n    tag_38:\n      dup3\n      add\n      swap2\n      swap1\n      0x00\n      mstore\n      keccak256(0x00, 0x20)\n      swap1\n    tag_39:\n      dup2\n      sload\n      dup2\n      mstore\n      swap1\n      0x01\n      add\n      swap1\n      0x20\n      add\n      dup1\n      dup4\n      gt\n      tag_39\n      jumpi\n      dup3\n      swap1\n      sub\n      0x1f\n      and\n      dup3\n      add\n      swap2\n    tag_37:\n      pop\n      pop\n      pop\n      pop\n      pop\n      dup2\n      mstore\n      0x20\n      add\n      0x02\n      dup3\n      add\n      0x00\n      swap1\n      sload\n      swap1\n      0x0100\n      exp\n      swap1\n      div\n      0xff\n      and\n      iszero\n      iszero\n      iszero\n      iszero\n      dup2\n      mstore\n      pop\n      pop\n      swap1\n      pop\n        /* \"todo.sol\":442:556  function getTaskByIndex(uint index) external view returns (Task memory){\r... */\n      swap2\n      swap1\n      pop\n      jump\t// out\n        /* \"todo.sol\":181:333  function addTask(string calldata task_data) external{\r... */\n    tag_19:\n        /* \"todo.sol\":244:251  uint id */\n      0x00\n        /* \"todo.sol\":254:264  tasks_list */\n      dup1\n        /* \"todo.sol\":254:271  tasks_list.length */\n      dup1\n      sload\n      swap1\n      pop\n        /* \"todo.sol\":244:271  uint id = tasks_list.length */\n      swap1\n      pop\n        /* \"todo.sol\":282:292  tasks_list */\n      0x00\n        /* \"todo.sol\":298:324  Task(id, task_data, false) */\n      mload(0x40)\n      dup1\n      0x60\n      add\n      0x40\n      mstore\n      dup1\n        /* \"todo.sol\":303:305  id */\n      dup4\n        /* \"todo.sol\":298:324  Task(id, task_data, false) */\n      dup2\n      mstore\n      0x20\n      add\n        /* \"todo.sol\":307:316  task_data */\n      dup6\n      dup6\n        /* \"todo.sol\":298:324  Task(id, task_data, false) */\n      dup1\n      dup1\n      0x1f\n      add\n      0x20\n      dup1\n      swap2\n      div\n      mul\n      0x20\n      add\n      mload(0x40)\n      swap1\n      dup2\n      add\n      0x40\n      mstore\n      dup1\n      swap4\n      swap3\n      swap2\n      swap1\n      dup2\n      dup2\n      mstore\n      0x20\n      add\n      dup4\n      dup4\n      dup1\n      dup3\n      dup5\n      calldatacopy\n      0x00\n      dup2\n      dup5\n      add\n      mstore\n      not(0x1f)\n      0x1f\n      dup3\n      add\n      and\n      swap1\n      pop\n      dup1\n      dup4\n      add\n      swap3\n      pop\n      pop\n      pop\n      pop\n      pop\n      pop\n      pop\n      dup2\n      mstore\n      0x20\n      add\n        /* \"todo.sol\":318:323  false */\n      0x00\n        /* \"todo.sol\":298:324  Task(id, task_data, false) */\n      iszero\n      iszero\n      dup2\n      mstore\n      pop\n        /* \"todo.sol\":282:325  tasks_list.push(Task(id, task_data, false)) */\n      swap1\n      dup1\n      0x01\n      dup2\n      sload\n      add\n      dup1\n      dup3\n      sstore\n      dup1\n      swap2\n      pop\n      pop\n      0x01\n      swap1\n      sub\n      swap1\n      0x00\n      mstore\n      keccak256(0x00, 0x20)\n      swap1\n      0x03\n      mul\n      add\n      0x00\n      swap1\n      swap2\n      swap1\n      swap2\n      swap1\n      swap2\n      pop\n      0x00\n      dup3\n      add\n      mload\n      dup2\n      0x00\n      add\n      sstore\n      0x20\n      dup3\n      add\n      mload\n      dup2\n      0x01\n      add\n      swap1\n      dup1\n      mload\n      swap1\n      0x20\n      add\n      swap1\n      tag_42\n      swap3\n      swap2\n      swap1\n      tag_43\n      jump\t// in\n    tag_42:\n      pop\n      0x40\n      dup3\n      add\n      mload\n      dup2\n      0x02\n      add\n      exp(0x0100, 0x00)\n      dup2\n      sload\n      dup2\n      0xff\n      mul\n      not\n      and\n      swap1\n      dup4\n      iszero\n      iszero\n      mul\n      or\n      swap1\n      sstore\n      pop\n      pop\n      pop\n        /* \"todo.sol\":181:333  function addTask(string calldata task_data) external{\r... */\n      pop\n      pop\n      pop\n      jump\t// out\n    tag_31:\n      mload(0x40)\n      dup1\n      0x60\n      add\n      0x40\n      mstore\n      dup1\n      0x00\n      dup2\n      mstore\n      0x20\n      add\n      0x60\n      dup2\n      mstore\n      0x20\n      add\n      iszero(iszero(0x00))\n      dup2\n      mstore\n      pop\n      swap1\n      jump\t// out\n    tag_43:\n      dup3\n      dup1\n      sload\n      tag_44\n      swap1\n      tag_25\n      jump\t// in\n    tag_44:\n      swap1\n      0x00\n      mstore\n      keccak256(0x00, 0x20)\n      swap1\n      0x1f\n      add\n      0x20\n      swap1\n      div\n      dup2\n      add\n      swap3\n      dup3\n      tag_46\n      jumpi\n      0x00\n      dup6\n      sstore\n      jump(tag_45)\n    tag_46:\n      dup3\n      0x1f\n      lt\n      tag_47\n      jumpi\n      dup1\n      mload\n      not(0xff)\n      and\n      dup4\n      dup1\n      add\n      or\n      dup6\n      sstore\n      jump(tag_45)\n    tag_47:\n      dup3\n      dup1\n      add\n      0x01\n      add\n      dup6\n      sstore\n      dup3\n      iszero\n      tag_45\n      jumpi\n      swap2\n      dup3\n      add\n    tag_48:\n      dup3\n      dup2\n      gt\n      iszero\n      tag_49\n      jumpi\n      dup3\n      mload\n      dup3\n      sstore\n      swap2\n      0x20\n      add\n      swap2\n      swap1\n      0x01\n      add\n      swap1\n      jump(tag_48)\n    tag_49:\n    tag_45:\n      pop\n      swap1\n      pop\n      tag_50\n      swap2\n      swap1\n      tag_51\n      jump\t// in\n    tag_50:\n      pop\n      swap1\n      jump\t// out\n    tag_51:\n    tag_52:\n      dup1\n      dup3\n      gt\n      iszero\n      tag_53\n      jumpi\n      0x00\n      dup2\n      0x00\n      swap1\n      sstore\n      pop\n      0x01\n      add\n      jump(tag_52)\n    tag_53:\n      pop\n      swap1\n      jump\t// out\n        /* \"#utility.yul\":21:373   */\n    tag_55:\n        /* \"#utility.yul\":79:87   */\n      0x00\n        /* \"#utility.yul\":89:95   */\n      dup1\n        /* \"#utility.yul\":139:142   */\n      dup4\n        /* \"#utility.yul\":132:136   */\n      0x1f\n        /* \"#utility.yul\":124:130   */\n      dup5\n        /* \"#utility.yul\":120:137   */\n      add\n        /* \"#utility.yul\":116:143   */\n      slt\n        /* \"#utility.yul\":106:108   */\n      tag_57\n      jumpi\n        /* \"#utility.yul\":157:158   */\n      0x00\n        /* \"#utility.yul\":154:155   */\n      dup1\n        /* \"#utility.yul\":147:159   */\n      revert\n        /* \"#utility.yul\":106:108   */\n    tag_57:\n        /* \"#utility.yul\":193:199   */\n      dup3\n        /* \"#utility.yul\":180:200   */\n      calldataload\n        /* \"#utility.yul\":170:200   */\n      swap1\n      pop\n        /* \"#utility.yul\":223:241   */\n      0xffffffffffffffff\n        /* \"#utility.yul\":215:221   */\n      dup2\n        /* \"#utility.yul\":212:242   */\n      gt\n        /* \"#utility.yul\":209:211   */\n      iszero\n      tag_58\n      jumpi\n        /* \"#utility.yul\":255:256   */\n      0x00\n        /* \"#utility.yul\":252:253   */\n      dup1\n        /* \"#utility.yul\":245:257   */\n      revert\n        /* \"#utility.yul\":209:211   */\n    tag_58:\n        /* \"#utility.yul\":292:296   */\n      0x20\n        /* \"#utility.yul\":284:290   */\n      dup4\n        /* \"#utility.yul\":280:297   */\n      add\n        /* \"#utility.yul\":268:297   */\n      swap2\n      pop\n        /* \"#utility.yul\":346:349   */\n      dup4\n        /* \"#utility.yul\":338:342   */\n      0x01\n        /* \"#utility.yul\":330:336   */\n      dup3\n        /* \"#utility.yul\":326:343   */\n      mul\n        /* \"#utility.yul\":316:324   */\n      dup4\n        /* \"#utility.yul\":312:344   */\n      add\n        /* \"#utility.yul\":309:350   */\n      gt\n        /* \"#utility.yul\":306:308   */\n      iszero\n      tag_59\n      jumpi\n        /* \"#utility.yul\":363:364   */\n      0x00\n        /* \"#utility.yul\":360:361   */\n      dup1\n        /* \"#utility.yul\":353:365   */\n      revert\n        /* \"#utility.yul\":306:308   */\n    tag_59:\n        /* \"#utility.yul\":96:373   */\n      swap3\n      pop\n      swap3\n      swap1\n      pop\n      jump\t// out\n        /* \"#utility.yul\":379:518   */\n    tag_60:\n        /* \"#utility.yul\":425:430   */\n      0x00\n        /* \"#utility.yul\":463:469   */\n      dup2\n        /* \"#utility.yul\":450:470   */\n      calldataload\n        /* \"#utility.yul\":441:470   */\n      swap1\n      pop\n        /* \"#utility.yul\":479:512   */\n      tag_62\n        /* \"#utility.yul\":506:511   */\n      dup2\n        /* \"#utility.yul\":479:512   */\n      tag_63\n      jump\t// in\n    tag_62:\n        /* \"#utility.yul\":431:518   */\n      swap3\n      swap2\n      pop\n      pop\n      jump\t// out\n        /* \"#utility.yul\":524:919   */\n    tag_18:\n        /* \"#utility.yul\":595:601   */\n      0x00\n        /* \"#utility.yul\":603:609   */\n      dup1\n        /* \"#utility.yul\":652:654   */\n      0x20\n        /* \"#utility.yul\":640:649   */\n      dup4\n        /* \"#utility.yul\":631:638   */\n      dup6\n        /* \"#utility.yul\":627:650   */\n      sub\n        /* \"#utility.yul\":623:655   */\n      slt\n        /* \"#utility.yul\":620:622   */\n      iszero\n      tag_65\n      jumpi\n        /* \"#utility.yul\":668:669   */\n      0x00\n        /* \"#utility.yul\":665:666   */\n      dup1\n        /* \"#utility.yul\":658:670   */\n      revert\n        /* \"#utility.yul\":620:622   */\n    tag_65:\n        /* \"#utility.yul\":739:740   */\n      0x00\n        /* \"#utility.yul\":728:737   */\n      dup4\n        /* \"#utility.yul\":724:741   */\n      add\n        /* \"#utility.yul\":711:742   */\n      calldataload\n        /* \"#utility.yul\":769:787   */\n      0xffffffffffffffff\n        /* \"#utility.yul\":761:767   */\n      dup2\n        /* \"#utility.yul\":758:788   */\n      gt\n        /* \"#utility.yul\":755:757   */\n      iszero\n      tag_66\n      jumpi\n        /* \"#utility.yul\":801:802   */\n      0x00\n        /* \"#utility.yul\":798:799   */\n      dup1\n        /* \"#utility.yul\":791:803   */\n      revert\n        /* \"#utility.yul\":755:757   */\n    tag_66:\n        /* \"#utility.yul\":837:902   */\n      tag_67\n        /* \"#utility.yul\":894:901   */\n      dup6\n        /* \"#utility.yul\":885:891   */\n      dup3\n        /* \"#utility.yul\":874:883   */\n      dup7\n        /* \"#utility.yul\":870:892   */\n      add\n        /* \"#utility.yul\":837:902   */\n      tag_55\n      jump\t// in\n    tag_67:\n        /* \"#utility.yul\":819:902   */\n      swap3\n      pop\n      swap3\n      pop\n        /* \"#utility.yul\":682:912   */\n      pop\n        /* \"#utility.yul\":610:919   */\n      swap3\n      pop\n      swap3\n      swap1\n      pop\n      jump\t// out\n        /* \"#utility.yul\":925:1187   */\n    tag_12:\n        /* \"#utility.yul\":984:990   */\n      0x00\n        /* \"#utility.yul\":1033:1035   */\n      0x20\n        /* \"#utility.yul\":1021:1030   */\n      dup3\n        /* \"#utility.yul\":1012:1019   */\n      dup5\n        /* \"#utility.yul\":1008:1031   */\n      sub\n        /* \"#utility.yul\":1004:1036   */\n      slt\n        /* \"#utility.yul\":1001:1003   */\n      iszero\n      tag_69\n      jumpi\n        /* \"#utility.yul\":1049:1050   */\n      0x00\n        /* \"#utility.yul\":1046:1047   */\n      dup1\n        /* \"#utility.yul\":1039:1051   */\n      revert\n        /* \"#utility.yul\":1001:1003   */\n    tag_69:\n        /* \"#utility.yul\":1092:1093   */\n      0x00\n        /* \"#utility.yul\":1117:1170   */\n      tag_70\n        /* \"#utility.yul\":1162:1169   */\n      dup5\n        /* \"#utility.yul\":1153:1159   */\n      dup3\n        /* \"#utility.yul\":1142:1151   */\n      dup6\n        /* \"#utility.yul\":1138:1160   */\n      add\n        /* \"#utility.yul\":1117:1170   */\n      tag_60\n      jump\t// in\n    tag_70:\n        /* \"#utility.yul\":1107:1170   */\n      swap2\n      pop\n        /* \"#utility.yul\":1063:1180   */\n      pop\n        /* \"#utility.yul\":991:1187   */\n      swap3\n      swap2\n      pop\n      pop\n      jump\t// out\n        /* \"#utility.yul\":1193:1425   */\n    tag_71:\n        /* \"#utility.yul\":1300:1310   */\n      0x00\n        /* \"#utility.yul\":1335:1419   */\n      tag_73\n        /* \"#utility.yul\":1415:1418   */\n      dup4\n        /* \"#utility.yul\":1407:1413   */\n      dup4\n        /* \"#utility.yul\":1335:1419   */\n      tag_74\n      jump\t// in\n    tag_73:\n        /* \"#utility.yul\":1321:1419   */\n      swap1\n      pop\n        /* \"#utility.yul\":1311:1425   */\n      swap3\n      swap2\n      pop\n      pop\n      jump\t// out\n        /* \"#utility.yul\":1481:2544   */\n    tag_75:\n        /* \"#utility.yul\":1638:1641   */\n      0x00\n        /* \"#utility.yul\":1667:1740   */\n      tag_77\n        /* \"#utility.yul\":1734:1739   */\n      dup3\n        /* \"#utility.yul\":1667:1740   */\n      tag_78\n      jump\t// in\n    tag_77:\n        /* \"#utility.yul\":1756:1861   */\n      tag_79\n        /* \"#utility.yul\":1854:1860   */\n      dup2\n        /* \"#utility.yul\":1849:1852   */\n      dup6\n        /* \"#utility.yul\":1756:1861   */\n      tag_80\n      jump\t// in\n    tag_79:\n        /* \"#utility.yul\":1749:1861   */\n      swap4\n      pop\n        /* \"#utility.yul\":1887:1890   */\n      dup4\n        /* \"#utility.yul\":1932:1936   */\n      0x20\n        /* \"#utility.yul\":1924:1930   */\n      dup3\n        /* \"#utility.yul\":1920:1937   */\n      mul\n        /* \"#utility.yul\":1915:1918   */\n      dup6\n        /* \"#utility.yul\":1911:1938   */\n      add\n        /* \"#utility.yul\":1962:2037   */\n      tag_81\n        /* \"#utility.yul\":2031:2036   */\n      dup6\n        /* \"#utility.yul\":1962:2037   */\n      tag_82\n      jump\t// in\n    tag_81:\n        /* \"#utility.yul\":2060:2067   */\n      dup1\n        /* \"#utility.yul\":2091:2092   */\n      0x00\n        /* \"#utility.yul\":2076:2499   */\n    tag_83:\n        /* \"#utility.yul\":2101:2107   */\n      dup6\n        /* \"#utility.yul\":2098:2099   */\n      dup2\n        /* \"#utility.yul\":2095:2108   */\n      lt\n        /* \"#utility.yul\":2076:2499   */\n      iszero\n      tag_85\n      jumpi\n        /* \"#utility.yul\":2172:2181   */\n      dup5\n        /* \"#utility.yul\":2166:2170   */\n      dup5\n        /* \"#utility.yul\":2162:2182   */\n      sub\n        /* \"#utility.yul\":2157:2160   */\n      dup10\n        /* \"#utility.yul\":2150:2183   */\n      mstore\n        /* \"#utility.yul\":2223:2229   */\n      dup2\n        /* \"#utility.yul\":2217:2230   */\n      mload\n        /* \"#utility.yul\":2251:2353   */\n      tag_86\n        /* \"#utility.yul\":2348:2352   */\n      dup6\n        /* \"#utility.yul\":2333:2346   */\n      dup3\n        /* \"#utility.yul\":2251:2353   */\n      tag_71\n      jump\t// in\n    tag_86:\n        /* \"#utility.yul\":2243:2353   */\n      swap5\n      pop\n        /* \"#utility.yul\":2376:2455   */\n      tag_87\n        /* \"#utility.yul\":2448:2454   */\n      dup4\n        /* \"#utility.yul\":2376:2455   */\n      tag_88\n      jump\t// in\n    tag_87:\n        /* \"#utility.yul\":2366:2455   */\n      swap3\n      pop\n        /* \"#utility.yul\":2484:2488   */\n      0x20\n        /* \"#utility.yul\":2479:2482   */\n      dup11\n        /* \"#utility.yul\":2475:2489   */\n      add\n        /* \"#utility.yul\":2468:2489   */\n      swap10\n      pop\n        /* \"#utility.yul\":2136:2499   */\n      pop\n        /* \"#utility.yul\":2123:2124   */\n      0x01\n        /* \"#utility.yul\":2120:2121   */\n      dup2\n        /* \"#utility.yul\":2116:2125   */\n      add\n        /* \"#utility.yul\":2111:2125   */\n      swap1\n      pop\n        /* \"#utility.yul\":2076:2499   */\n      jump(tag_83)\n    tag_85:\n        /* \"#utility.yul\":2080:2094   */\n      pop\n        /* \"#utility.yul\":2515:2519   */\n      dup3\n        /* \"#utility.yul\":2508:2519   */\n      swap8\n      pop\n        /* \"#utility.yul\":2535:2538   */\n      dup8\n        /* \"#utility.yul\":2528:2538   */\n      swap6\n      pop\n        /* \"#utility.yul\":1643:2544   */\n      pop\n      pop\n      pop\n      pop\n      pop\n      swap3\n      swap2\n      pop\n      pop\n      jump\t// out\n        /* \"#utility.yul\":2550:2649   */\n    tag_89:\n        /* \"#utility.yul\":2621:2642   */\n      tag_91\n        /* \"#utility.yul\":2636:2641   */\n      dup2\n        /* \"#utility.yul\":2621:2642   */\n      tag_92\n      jump\t// in\n    tag_91:\n        /* \"#utility.yul\":2616:2619   */\n      dup3\n        /* \"#utility.yul\":2609:2643   */\n      mstore\n        /* \"#utility.yul\":2599:2649   */\n      pop\n      pop\n      jump\t// out\n        /* \"#utility.yul\":2655:2999   */\n    tag_93:\n        /* \"#utility.yul\":2733:2736   */\n      0x00\n        /* \"#utility.yul\":2761:2800   */\n      tag_95\n        /* \"#utility.yul\":2794:2799   */\n      dup3\n        /* \"#utility.yul\":2761:2800   */\n      tag_96\n      jump\t// in\n    tag_95:\n        /* \"#utility.yul\":2816:2877   */\n      tag_97\n        /* \"#utility.yul\":2870:2876   */\n      dup2\n        /* \"#utility.yul\":2865:2868   */\n      dup6\n        /* \"#utility.yul\":2816:2877   */\n      tag_98\n      jump\t// in\n    tag_97:\n        /* \"#utility.yul\":2809:2877   */\n      swap4\n      pop\n        /* \"#utility.yul\":2886:2938   */\n      tag_99\n        /* \"#utility.yul\":2931:2937   */\n      dup2\n        /* \"#utility.yul\":2926:2929   */\n      dup6\n        /* \"#utility.yul\":2919:2923   */\n      0x20\n        /* \"#utility.yul\":2912:2917   */\n      dup7\n        /* \"#utility.yul\":2908:2924   */\n      add\n        /* \"#utility.yul\":2886:2938   */\n      tag_100\n      jump\t// in\n    tag_99:\n        /* \"#utility.yul\":2963:2992   */\n      tag_101\n        /* \"#utility.yul\":2985:2991   */\n      dup2\n        /* \"#utility.yul\":2963:2992   */\n      tag_102\n      jump\t// in\n    tag_101:\n        /* \"#utility.yul\":2958:2961   */\n      dup5\n        /* \"#utility.yul\":2954:2993   */\n      add\n        /* \"#utility.yul\":2947:2993   */\n      swap2\n      pop\n        /* \"#utility.yul\":2737:2999   */\n      pop\n      swap3\n      swap2\n      pop\n      pop\n      jump\t// out\n        /* \"#utility.yul\":3051:3808   */\n    tag_74:\n        /* \"#utility.yul\":3148:3151   */\n      0x00\n        /* \"#utility.yul\":3184:3188   */\n      0x60\n        /* \"#utility.yul\":3179:3182   */\n      dup4\n        /* \"#utility.yul\":3175:3189   */\n      add\n        /* \"#utility.yul\":3269:3273   */\n      0x00\n        /* \"#utility.yul\":3262:3267   */\n      dup4\n        /* \"#utility.yul\":3258:3274   */\n      add\n        /* \"#utility.yul\":3252:3275   */\n      mload\n        /* \"#utility.yul\":3288:3351   */\n      tag_104\n        /* \"#utility.yul\":3345:3349   */\n      0x00\n        /* \"#utility.yul\":3340:3343   */\n      dup7\n        /* \"#utility.yul\":3336:3350   */\n      add\n        /* \"#utility.yul\":3322:3334   */\n      dup3\n        /* \"#utility.yul\":3288:3351   */\n      tag_105\n      jump\t// in\n    tag_104:\n        /* \"#utility.yul\":3199:3361   */\n      pop\n        /* \"#utility.yul\":3443:3447   */\n      0x20\n        /* \"#utility.yul\":3436:3441   */\n      dup4\n        /* \"#utility.yul\":3432:3448   */\n      add\n        /* \"#utility.yul\":3426:3449   */\n      mload\n        /* \"#utility.yul\":3496:3499   */\n      dup5\n        /* \"#utility.yul\":3490:3494   */\n      dup3\n        /* \"#utility.yul\":3486:3500   */\n      sub\n        /* \"#utility.yul\":3479:3483   */\n      0x20\n        /* \"#utility.yul\":3474:3477   */\n      dup7\n        /* \"#utility.yul\":3470:3484   */\n      add\n        /* \"#utility.yul\":3463:3501   */\n      mstore\n        /* \"#utility.yul\":3522:3595   */\n      tag_106\n        /* \"#utility.yul\":3590:3594   */\n      dup3\n        /* \"#utility.yul\":3576:3588   */\n      dup3\n        /* \"#utility.yul\":3522:3595   */\n      tag_93\n      jump\t// in\n    tag_106:\n        /* \"#utility.yul\":3514:3595   */\n      swap2\n      pop\n        /* \"#utility.yul\":3371:3606   */\n      pop\n        /* \"#utility.yul\":3695:3699   */\n      0x40\n        /* \"#utility.yul\":3688:3693   */\n      dup4\n        /* \"#utility.yul\":3684:3700   */\n      add\n        /* \"#utility.yul\":3678:3701   */\n      mload\n        /* \"#utility.yul\":3714:3771   */\n      tag_107\n        /* \"#utility.yul\":3765:3769   */\n      0x40\n        /* \"#utility.yul\":3760:3763   */\n      dup7\n        /* \"#utility.yul\":3756:3770   */\n      add\n        /* \"#utility.yul\":3742:3754   */\n      dup3\n        /* \"#utility.yul\":3714:3771   */\n      tag_89\n      jump\t// in\n    tag_107:\n        /* \"#utility.yul\":3616:3781   */\n      pop\n        /* \"#utility.yul\":3798:3802   */\n      dup1\n        /* \"#utility.yul\":3791:3802   */\n      swap2\n      pop\n        /* \"#utility.yul\":3153:3808   */\n      pop\n      swap3\n      swap2\n      pop\n      pop\n      jump\t// out\n        /* \"#utility.yul\":3860:4627   */\n    tag_108:\n        /* \"#utility.yul\":3967:3970   */\n      0x00\n        /* \"#utility.yul\":4003:4007   */\n      0x60\n        /* \"#utility.yul\":3998:4001   */\n      dup4\n        /* \"#utility.yul\":3994:4008   */\n      add\n        /* \"#utility.yul\":4088:4092   */\n      0x00\n        /* \"#utility.yul\":4081:4086   */\n      dup4\n        /* \"#utility.yul\":4077:4093   */\n      add\n        /* \"#utility.yul\":4071:4094   */\n      mload\n        /* \"#utility.yul\":4107:4170   */\n      tag_110\n        /* \"#utility.yul\":4164:4168   */\n      0x00\n        /* \"#utility.yul\":4159:4162   */\n      dup7\n        /* \"#utility.yul\":4155:4169   */\n      add\n        /* \"#utility.yul\":4141:4153   */\n      dup3\n        /* \"#utility.yul\":4107:4170   */\n      tag_105\n      jump\t// in\n    tag_110:\n        /* \"#utility.yul\":4018:4180   */\n      pop\n        /* \"#utility.yul\":4262:4266   */\n      0x20\n        /* \"#utility.yul\":4255:4260   */\n      dup4\n        /* \"#utility.yul\":4251:4267   */\n      add\n        /* \"#utility.yul\":4245:4268   */\n      mload\n        /* \"#utility.yul\":4315:4318   */\n      dup5\n        /* \"#utility.yul\":4309:4313   */\n      dup3\n        /* \"#utility.yul\":4305:4319   */\n      sub\n        /* \"#utility.yul\":4298:4302   */\n      0x20\n        /* \"#utility.yul\":4293:4296   */\n      dup7\n        /* \"#utility.yul\":4289:4303   */\n      add\n        /* \"#utility.yul\":4282:4320   */\n      mstore\n        /* \"#utility.yul\":4341:4414   */\n      tag_111\n        /* \"#utility.yul\":4409:4413   */\n      dup3\n        /* \"#utility.yul\":4395:4407   */\n      dup3\n        /* \"#utility.yul\":4341:4414   */\n      tag_93\n      jump\t// in\n    tag_111:\n        /* \"#utility.yul\":4333:4414   */\n      swap2\n      pop\n        /* \"#utility.yul\":4190:4425   */\n      pop\n        /* \"#utility.yul\":4514:4518   */\n      0x40\n        /* \"#utility.yul\":4507:4512   */\n      dup4\n        /* \"#utility.yul\":4503:4519   */\n      add\n        /* \"#utility.yul\":4497:4520   */\n      mload\n        /* \"#utility.yul\":4533:4590   */\n      tag_112\n        /* \"#utility.yul\":4584:4588   */\n      0x40\n        /* \"#utility.yul\":4579:4582   */\n      dup7\n        /* \"#utility.yul\":4575:4589   */\n      add\n        /* \"#utility.yul\":4561:4573   */\n      dup3\n        /* \"#utility.yul\":4533:4590   */\n      tag_89\n      jump\t// in\n    tag_112:\n        /* \"#utility.yul\":4435:4600   */\n      pop\n        /* \"#utility.yul\":4617:4621   */\n      dup1\n        /* \"#utility.yul\":4610:4621   */\n      swap2\n      pop\n        /* \"#utility.yul\":3972:4627   */\n      pop\n      swap3\n      swap2\n      pop\n      pop\n      jump\t// out\n        /* \"#utility.yul\":4633:4741   */\n    tag_105:\n        /* \"#utility.yul\":4710:4734   */\n      tag_114\n        /* \"#utility.yul\":4728:4733   */\n      dup2\n        /* \"#utility.yul\":4710:4734   */\n      tag_115\n      jump\t// in\n    tag_114:\n        /* \"#utility.yul\":4705:4708   */\n      dup3\n        /* \"#utility.yul\":4698:4735   */\n      mstore\n        /* \"#utility.yul\":4688:4741   */\n      pop\n      pop\n      jump\t// out\n        /* \"#utility.yul\":4747:5196   */\n    tag_9:\n        /* \"#utility.yul\":4928:4932   */\n      0x00\n        /* \"#utility.yul\":4966:4968   */\n      0x20\n        /* \"#utility.yul\":4955:4964   */\n      dup3\n        /* \"#utility.yul\":4951:4969   */\n      add\n        /* \"#utility.yul\":4943:4969   */\n      swap1\n      pop\n        /* \"#utility.yul\":5015:5024   */\n      dup2\n        /* \"#utility.yul\":5009:5013   */\n      dup2\n        /* \"#utility.yul\":5005:5025   */\n      sub\n        /* \"#utility.yul\":5001:5002   */\n      0x00\n        /* \"#utility.yul\":4990:4999   */\n      dup4\n        /* \"#utility.yul\":4986:5003   */\n      add\n        /* \"#utility.yul\":4979:5026   */\n      mstore\n        /* \"#utility.yul\":5043:5189   */\n      tag_117\n        /* \"#utility.yul\":5184:5188   */\n      dup2\n        /* \"#utility.yul\":5175:5181   */\n      dup5\n        /* \"#utility.yul\":5043:5189   */\n      tag_75\n      jump\t// in\n    tag_117:\n        /* \"#utility.yul\":5035:5189   */\n      swap1\n      pop\n        /* \"#utility.yul\":4933:5196   */\n      swap3\n      swap2\n      pop\n      pop\n      jump\t// out\n        /* \"#utility.yul\":5202:5551   */\n    tag_15:\n        /* \"#utility.yul\":5333:5337   */\n      0x00\n        /* \"#utility.yul\":5371:5373   */\n      0x20\n        /* \"#utility.yul\":5360:5369   */\n      dup3\n        /* \"#utility.yul\":5356:5374   */\n      add\n        /* \"#utility.yul\":5348:5374   */\n      swap1\n      pop\n        /* \"#utility.yul\":5420:5429   */\n      dup2\n        /* \"#utility.yul\":5414:5418   */\n      dup2\n        /* \"#utility.yul\":5410:5430   */\n      sub\n        /* \"#utility.yul\":5406:5407   */\n      0x00\n        /* \"#utility.yul\":5395:5404   */\n      dup4\n        /* \"#utility.yul\":5391:5408   */\n      add\n        /* \"#utility.yul\":5384:5431   */\n      mstore\n        /* \"#utility.yul\":5448:5544   */\n      tag_119\n        /* \"#utility.yul\":5539:5543   */\n      dup2\n        /* \"#utility.yul\":5530:5536   */\n      dup5\n        /* \"#utility.yul\":5448:5544   */\n      tag_108\n      jump\t// in\n    tag_119:\n        /* \"#utility.yul\":5440:5544   */\n      swap1\n      pop\n        /* \"#utility.yul\":5338:5551   */\n      swap3\n      swap2\n      pop\n      pop\n      jump\t// out\n        /* \"#utility.yul\":5557:5708   */\n    tag_82:\n        /* \"#utility.yul\":5643:5647   */\n      0x00\n        /* \"#utility.yul\":5666:5669   */\n      dup2\n        /* \"#utility.yul\":5658:5669   */\n      swap1\n      pop\n        /* \"#utility.yul\":5696:5700   */\n      0x20\n        /* \"#utility.yul\":5691:5694   */\n      dup3\n        /* \"#utility.yul\":5687:5701   */\n      add\n        /* \"#utility.yul\":5679:5701   */\n      swap1\n      pop\n        /* \"#utility.yul\":5648:5708   */\n      swap2\n      swap1\n      pop\n      jump\t// out\n        /* \"#utility.yul\":5714:5847   */\n    tag_78:\n        /* \"#utility.yul\":5800:5806   */\n      0x00\n        /* \"#utility.yul\":5834:5839   */\n      dup2\n        /* \"#utility.yul\":5828:5840   */\n      mload\n        /* \"#utility.yul\":5818:5840   */\n      swap1\n      pop\n        /* \"#utility.yul\":5807:5847   */\n      swap2\n      swap1\n      pop\n      jump\t// out\n        /* \"#utility.yul\":5853:5952   */\n    tag_96:\n        /* \"#utility.yul\":5905:5911   */\n      0x00\n        /* \"#utility.yul\":5939:5944   */\n      dup2\n        /* \"#utility.yul\":5933:5945   */\n      mload\n        /* \"#utility.yul\":5923:5945   */\n      swap1\n      pop\n        /* \"#utility.yul\":5912:5952   */\n      swap2\n      swap1\n      pop\n      jump\t// out\n        /* \"#utility.yul\":5958:6090   */\n    tag_88:\n        /* \"#utility.yul\":6047:6051   */\n      0x00\n        /* \"#utility.yul\":6079:6083   */\n      0x20\n        /* \"#utility.yul\":6074:6077   */\n      dup3\n        /* \"#utility.yul\":6070:6084   */\n      add\n        /* \"#utility.yul\":6062:6084   */\n      swap1\n      pop\n        /* \"#utility.yul\":6052:6090   */\n      swap2\n      swap1\n      pop\n      jump\t// out\n        /* \"#utility.yul\":6096:6299   */\n    tag_80:\n        /* \"#utility.yul\":6214:6225   */\n      0x00\n        /* \"#utility.yul\":6248:6254   */\n      dup3\n        /* \"#utility.yul\":6243:6246   */\n      dup3\n        /* \"#utility.yul\":6236:6255   */\n      mstore\n        /* \"#utility.yul\":6288:6292   */\n      0x20\n        /* \"#utility.yul\":6283:6286   */\n      dup3\n        /* \"#utility.yul\":6279:6293   */\n      add\n        /* \"#utility.yul\":6264:6293   */\n      swap1\n      pop\n        /* \"#utility.yul\":6226:6299   */\n      swap3\n      swap2\n      pop\n      pop\n      jump\t// out\n        /* \"#utility.yul\":6305:6464   */\n    tag_98:\n        /* \"#utility.yul\":6379:6390   */\n      0x00\n        /* \"#utility.yul\":6413:6419   */\n      dup3\n        /* \"#utility.yul\":6408:6411   */\n      dup3\n        /* \"#utility.yul\":6401:6420   */\n      mstore\n        /* \"#utility.yul\":6453:6457   */\n      0x20\n        /* \"#utility.yul\":6448:6451   */\n      dup3\n        /* \"#utility.yul\":6444:6458   */\n      add\n        /* \"#utility.yul\":6429:6458   */\n      swap1\n      pop\n        /* \"#utility.yul\":6391:6464   */\n      swap3\n      swap2\n      pop\n      pop\n      jump\t// out\n        /* \"#utility.yul\":6470:6560   */\n    tag_92:\n        /* \"#utility.yul\":6504:6511   */\n      0x00\n        /* \"#utility.yul\":6547:6552   */\n      dup2\n        /* \"#utility.yul\":6540:6553   */\n      iszero\n        /* \"#utility.yul\":6533:6554   */\n      iszero\n        /* \"#utility.yul\":6522:6554   */\n      swap1\n      pop\n        /* \"#utility.yul\":6512:6560   */\n      swap2\n      swap1\n      pop\n      jump\t// out\n        /* \"#utility.yul\":6566:6643   */\n    tag_115:\n        /* \"#utility.yul\":6603:6610   */\n      0x00\n        /* \"#utility.yul\":6632:6637   */\n      dup2\n        /* \"#utility.yul\":6621:6637   */\n      swap1\n      pop\n        /* \"#utility.yul\":6611:6643   */\n      swap2\n      swap1\n      pop\n      jump\t// out\n        /* \"#utility.yul\":6649:6956   */\n    tag_100:\n        /* \"#utility.yul\":6717:6718   */\n      0x00\n        /* \"#utility.yul\":6727:6840   */\n    tag_129:\n        /* \"#utility.yul\":6741:6747   */\n      dup4\n        /* \"#utility.yul\":6738:6739   */\n      dup2\n        /* \"#utility.yul\":6735:6748   */\n      lt\n        /* \"#utility.yul\":6727:6840   */\n      iszero\n      tag_131\n      jumpi\n        /* \"#utility.yul\":6826:6827   */\n      dup1\n        /* \"#utility.yul\":6821:6824   */\n      dup3\n        /* \"#utility.yul\":6817:6828   */\n      add\n        /* \"#utility.yul\":6811:6829   */\n      mload\n        /* \"#utility.yul\":6807:6808   */\n      dup2\n        /* \"#utility.yul\":6802:6805   */\n      dup5\n        /* \"#utility.yul\":6798:6809   */\n      add\n        /* \"#utility.yul\":6791:6830   */\n      mstore\n        /* \"#utility.yul\":6763:6765   */\n      0x20\n        /* \"#utility.yul\":6760:6761   */\n      dup2\n        /* \"#utility.yul\":6756:6766   */\n      add\n        /* \"#utility.yul\":6751:6766   */\n      swap1\n      pop\n        /* \"#utility.yul\":6727:6840   */\n      jump(tag_129)\n    tag_131:\n        /* \"#utility.yul\":6858:6864   */\n      dup4\n        /* \"#utility.yul\":6855:6856   */\n      dup2\n        /* \"#utility.yul\":6852:6865   */\n      gt\n        /* \"#utility.yul\":6849:6851   */\n      iszero\n      tag_132\n      jumpi\n        /* \"#utility.yul\":6938:6939   */\n      0x00\n        /* \"#utility.yul\":6929:6935   */\n      dup5\n        /* \"#utility.yul\":6924:6927   */\n      dup5\n        /* \"#utility.yul\":6920:6936   */\n      add\n        /* \"#utility.yul\":6913:6940   */\n      mstore\n        /* \"#utility.yul\":6849:6851   */\n    tag_132:\n        /* \"#utility.yul\":6698:6956   */\n      pop\n      pop\n      pop\n      pop\n      jump\t// out\n        /* \"#utility.yul\":6962:7282   */\n    tag_25:\n        /* \"#utility.yul\":7006:7012   */\n      0x00\n        /* \"#utility.yul\":7043:7044   */\n      0x02\n        /* \"#utility.yul\":7037:7041   */\n      dup3\n        /* \"#utility.yul\":7033:7045   */\n      div\n        /* \"#utility.yul\":7023:7045   */\n      swap1\n      pop\n        /* \"#utility.yul\":7090:7091   */\n      0x01\n        /* \"#utility.yul\":7084:7088   */\n      dup3\n        /* \"#utility.yul\":7080:7092   */\n      and\n        /* \"#utility.yul\":7111:7129   */\n      dup1\n        /* \"#utility.yul\":7101:7103   */\n      tag_134\n      jumpi\n        /* \"#utility.yul\":7167:7171   */\n      0x7f\n        /* \"#utility.yul\":7159:7165   */\n      dup3\n        /* \"#utility.yul\":7155:7172   */\n      and\n        /* \"#utility.yul\":7145:7172   */\n      swap2\n      pop\n        /* \"#utility.yul\":7101:7103   */\n    tag_134:\n        /* \"#utility.yul\":7229:7231   */\n      0x20\n        /* \"#utility.yul\":7221:7227   */\n      dup3\n        /* \"#utility.yul\":7218:7232   */\n      lt\n        /* \"#utility.yul\":7198:7216   */\n      dup2\n        /* \"#utility.yul\":7195:7233   */\n      eq\n        /* \"#utility.yul\":7192:7194   */\n      iszero\n      tag_135\n      jumpi\n        /* \"#utility.yul\":7248:7266   */\n      tag_136\n      tag_137\n      jump\t// in\n    tag_136:\n        /* \"#utility.yul\":7192:7194   */\n    tag_135:\n        /* \"#utility.yul\":7013:7282   */\n      pop\n      swap2\n      swap1\n      pop\n      jump\t// out\n        /* \"#utility.yul\":7288:7468   */\n    tag_137:\n        /* \"#utility.yul\":7336:7413   */\n      0x4e487b7100000000000000000000000000000000000000000000000000000000\n        /* \"#utility.yul\":7333:7334   */\n      0x00\n        /* \"#utility.yul\":7326:7414   */\n      mstore\n        /* \"#utility.yul\":7433:7437   */\n      0x22\n        /* \"#utility.yul\":7430:7431   */\n      0x04\n        /* \"#utility.yul\":7423:7438   */\n      mstore\n        /* \"#utility.yul\":7457:7461   */\n      0x24\n        /* \"#utility.yul\":7454:7455   */\n      0x00\n        /* \"#utility.yul\":7447:7462   */\n      revert\n        /* \"#utility.yul\":7474:7576   */\n    tag_102:\n        /* \"#utility.yul\":7515:7521   */\n      0x00\n        /* \"#utility.yul\":7566:7568   */\n      0x1f\n        /* \"#utility.yul\":7562:7569   */\n      not\n        /* \"#utility.yul\":7557:7559   */\n      0x1f\n        /* \"#utility.yul\":7550:7555   */\n      dup4\n        /* \"#utility.yul\":7546:7560   */\n      add\n        /* \"#utility.yul\":7542:7570   */\n      and\n        /* \"#utility.yul\":7532:7570   */\n      swap1\n      pop\n        /* \"#utility.yul\":7522:7576   */\n      swap2\n      swap1\n      pop\n      jump\t// out\n        /* \"#utility.yul\":7582:7704   */\n    tag_63:\n        /* \"#utility.yul\":7655:7679   */\n      tag_141\n        /* \"#utility.yul\":7673:7678   */\n      dup2\n        /* \"#utility.yul\":7655:7679   */\n      tag_115\n      jump\t// in\n    tag_141:\n        /* \"#utility.yul\":7648:7653   */\n      dup2\n        /* \"#utility.yul\":7645:7680   */\n      eq\n        /* \"#utility.yul\":7635:7637   */\n      tag_142\n      jumpi\n        /* \"#utility.yul\":7694:7695   */\n      0x00\n        /* \"#utility.yul\":7691:7692   */\n      dup1\n        /* \"#utility.yul\":7684:7696   */\n      revert\n        /* \"#utility.yul\":7635:7637   */\n    tag_142:\n        /* \"#utility.yul\":7625:7704   */\n      pop\n      jump\t// out\n\n    auxdata: 0xa2646970667358221220368bd22cb998d6c4c17d362748af56a42ac4c53309b234c46206b335e550c32a64736f6c63430008040033\n}\n",
				"bytecode": {
					"linkReferences": {},
					"object": "608060405234801561001057600080fd5b50610877806100206000396000f3fe608060405234801561001057600080fd5b50600436106100415760003560e01c806304a87e38146100465780635b8ca16f146100645780636723856214610094575b600080fd5b61004e6100b0565b60405161005b91906106d6565b60405180910390f35b61007e6004803603810190610079919061052d565b6101c6565b60405161008b91906106f8565b60405180910390f35b6100ae60048036038101906100a991906104e8565b6102df565b005b60606000805480602002602001604051908101604052809291908181526020016000905b828210156101bd578382906000526020600020906003020160405180606001604052908160008201548152602001600182018054610111906107b8565b80601f016020809104026020016040519081016040528092919081815260200182805461013d906107b8565b801561018a5780601f1061015f5761010080835404028352916020019161018a565b820191906000526020600020905b81548152906001019060200180831161016d57829003601f168201915b505050505081526020016002820160009054906101000a900460ff161515151581525050815260200190600101906100d4565b50505050905090565b6101ce6103c3565b60008281548110610208577f4e487b7100000000000000000000000000000000000000000000000000000000600052603260045260246000fd5b90600052602060002090600302016040518060600160405290816000820154815260200160018201805461023b906107b8565b80601f0160208091040260200160405190810160405280929190818152602001828054610267906107b8565b80156102b45780601f10610289576101008083540402835291602001916102b4565b820191906000526020600020905b81548152906001019060200180831161029757829003601f168201915b505050505081526020016002820160009054906101000a900460ff1615151515815250509050919050565b6000808054905090506000604051806060016040528083815260200185858080601f016020809104026020016040519081016040528093929190818152602001838380828437600081840152601f19601f82011690508083019250505050505050815260200160001515815250908060018154018082558091505060019003906000526020600020906003020160009091909190915060008201518160000155602082015181600101908051906020019061039b9291906103e6565b5060408201518160020160006101000a81548160ff0219169083151502179055505050505050565b604051806060016040528060008152602001606081526020016000151581525090565b8280546103f2906107b8565b90600052602060002090601f016020900481019282610414576000855561045b565b82601f1061042d57805160ff191683800117855561045b565b8280016001018555821561045b579182015b8281111561045a57825182559160200191906001019061043f565b5b509050610468919061046c565b5090565b5b8082111561048557600081600090555060010161046d565b5090565b60008083601f84011261049b57600080fd5b8235905067ffffffffffffffff8111156104b457600080fd5b6020830191508360018202830111156104cc57600080fd5b9250929050565b6000813590506104e28161082a565b92915050565b600080602083850312156104fb57600080fd5b600083013567ffffffffffffffff81111561051557600080fd5b61052185828601610489565b92509250509250929050565b60006020828403121561053f57600080fd5b600061054d848285016104d3565b91505092915050565b60006105628383610627565b905092915050565b60006105758261072a565b61057f818561074d565b9350836020820285016105918561071a565b8060005b858110156105cd57848403895281516105ae8582610556565b94506105b983610740565b925060208a01995050600181019050610595565b50829750879550505050505092915050565b6105e88161076f565b82525050565b60006105f982610735565b610603818561075e565b9350610613818560208601610785565b61061c81610819565b840191505092915050565b600060608301600083015161063f60008601826106c7565b506020830151848203602086015261065782826105ee565b915050604083015161066c60408601826105df565b508091505092915050565b600060608301600083015161068f60008601826106c7565b50602083015184820360208601526106a782826105ee565b91505060408301516106bc60408601826105df565b508091505092915050565b6106d08161077b565b82525050565b600060208201905081810360008301526106f0818461056a565b905092915050565b600060208201905081810360008301526107128184610677565b905092915050565b6000819050602082019050919050565b600081519050919050565b600081519050919050565b6000602082019050919050565b600082825260208201905092915050565b600082825260208201905092915050565b60008115159050919050565b6000819050919050565b60005b838110156107a3578082015181840152602081019050610788565b838111156107b2576000848401525b50505050565b600060028204905060018216806107d057607f821691505b602082108114156107e4576107e36107ea565b5b50919050565b7f4e487b7100000000000000000000000000000000000000000000000000000000600052602260045260246000fd5b6000601f19601f8301169050919050565b6108338161077b565b811461083e57600080fd5b5056fea2646970667358221220368bd22cb998d6c4c17d362748af56a42ac4c53309b234c46206b335e550c32a64736f6c63430008040033",
					"opcodes": "PUSH1 0x80 PUSH1 0x40 MSTORE CALLVALUE DUP1 ISZERO PUSH2 0x10 JUMPI PUSH1 0x0 DUP1 REVERT JUMPDEST POP PUSH2 0x877 DUP1 PUSH2 0x20 PUSH1 0x0 CODECOPY PUSH1 0x0 RETURN INVALID PUSH1 0x80 PUSH1 0x40 MSTORE CALLVALUE DUP1 ISZERO PUSH2 0x10 JUMPI PUSH1 0x0 DUP1 REVERT JUMPDEST POP PUSH1 0x4 CALLDATASIZE LT PUSH2 0x41 JUMPI PUSH1 0x0 CALLDATALOAD PUSH1 0xE0 SHR DUP1 PUSH4 0x4A87E38 EQ PUSH2 0x46 JUMPI DUP1 PUSH4 0x5B8CA16F EQ PUSH2 0x64 JUMPI DUP1 PUSH4 0x67238562 EQ PUSH2 0x94 JUMPI JUMPDEST PUSH1 0x0 DUP1 REVERT JUMPDEST PUSH2 0x4E PUSH2 0xB0 JUMP JUMPDEST PUSH1 0x40 MLOAD PUSH2 0x5B SWAP2 SWAP1 PUSH2 0x6D6 JUMP JUMPDEST PUSH1 0x40 MLOAD DUP1 SWAP2 SUB SWAP1 RETURN JUMPDEST PUSH2 0x7E PUSH1 0x4 DUP1 CALLDATASIZE SUB DUP2 ADD SWAP1 PUSH2 0x79 SWAP2 SWAP1 PUSH2 0x52D JUMP JUMPDEST PUSH2 0x1C6 JUMP JUMPDEST PUSH1 0x40 MLOAD PUSH2 0x8B SWAP2 SWAP1 PUSH2 0x6F8 JUMP JUMPDEST PUSH1 0x40 MLOAD DUP1 SWAP2 SUB SWAP1 RETURN JUMPDEST PUSH2 0xAE PUSH1 0x4 DUP1 CALLDATASIZE SUB DUP2 ADD SWAP1 PUSH2 0xA9 SWAP2 SWAP1 PUSH2 0x4E8 JUMP JUMPDEST PUSH2 0x2DF JUMP JUMPDEST STOP JUMPDEST PUSH1 0x60 PUSH1 0x0 DUP1 SLOAD DUP1 PUSH1 0x20 MUL PUSH1 0x20 ADD PUSH1 0x40 MLOAD SWAP1 DUP2 ADD PUSH1 0x40 MSTORE DUP1 SWAP3 SWAP2 SWAP1 DUP2 DUP2 MSTORE PUSH1 0x20 ADD PUSH1 0x0 SWAP1 JUMPDEST DUP3 DUP3 LT ISZERO PUSH2 0x1BD JUMPI DUP4 DUP3 SWAP1 PUSH1 0x0 MSTORE PUSH1 0x20 PUSH1 0x0 KECCAK256 SWAP1 PUSH1 0x3 MUL ADD PUSH1 0x40 MLOAD DUP1 PUSH1 0x60 ADD PUSH1 0x40 MSTORE SWAP1 DUP2 PUSH1 0x0 DUP3 ADD SLOAD DUP2 MSTORE PUSH1 0x20 ADD PUSH1 0x1 DUP3 ADD DUP1 SLOAD PUSH2 0x111 SWAP1 PUSH2 0x7B8 JUMP JUMPDEST DUP1 PUSH1 0x1F ADD PUSH1 0x20 DUP1 SWAP2 DIV MUL PUSH1 0x20 ADD PUSH1 0x40 MLOAD SWAP1 DUP2 ADD PUSH1 0x40 MSTORE DUP1 SWAP3 SWAP2 SWAP1 DUP2 DUP2 MSTORE PUSH1 0x20 ADD DUP3 DUP1 SLOAD PUSH2 0x13D SWAP1 PUSH2 0x7B8 JUMP JUMPDEST DUP1 ISZERO PUSH2 0x18A JUMPI DUP1 PUSH1 0x1F LT PUSH2 0x15F JUMPI PUSH2 0x100 DUP1 DUP4 SLOAD DIV MUL DUP4 MSTORE SWAP2 PUSH1 0x20 ADD SWAP2 PUSH2 0x18A JUMP JUMPDEST DUP3 ADD SWAP2 SWAP1 PUSH1 0x0 MSTORE PUSH1 0x20 PUSH1 0x0 KECCAK256 SWAP1 JUMPDEST DUP2 SLOAD DUP2 MSTORE SWAP1 PUSH1 0x1 ADD SWAP1 PUSH1 0x20 ADD DUP1 DUP4 GT PUSH2 0x16D JUMPI DUP3 SWAP1 SUB PUSH1 0x1F AND DUP3 ADD SWAP2 JUMPDEST POP POP POP POP POP DUP2 MSTORE PUSH1 0x20 ADD PUSH1 0x2 DUP3 ADD PUSH1 0x0 SWAP1 SLOAD SWAP1 PUSH2 0x100 EXP SWAP1 DIV PUSH1 0xFF AND ISZERO ISZERO ISZERO ISZERO DUP2 MSTORE POP POP DUP2 MSTORE PUSH1 0x20 ADD SWAP1 PUSH1 0x1 ADD SWAP1 PUSH2 0xD4 JUMP JUMPDEST POP POP POP POP SWAP1 POP SWAP1 JUMP JUMPDEST PUSH2 0x1CE PUSH2 0x3C3 JUMP JUMPDEST PUSH1 0x0 DUP3 DUP2 SLOAD DUP2 LT PUSH2 0x208 JUMPI PUSH32 0x4E487B7100000000000000000000000000000000000000000000000000000000 PUSH1 0x0 MSTORE PUSH1 0x32 PUSH1 0x4 MSTORE PUSH1 0x24 PUSH1 0x0 REVERT JUMPDEST SWAP1 PUSH1 0x0 MSTORE PUSH1 0x20 PUSH1 0x0 KECCAK256 SWAP1 PUSH1 0x3 MUL ADD PUSH1 0x40 MLOAD DUP1 PUSH1 0x60 ADD PUSH1 0x40 MSTORE SWAP1 DUP2 PUSH1 0x0 DUP3 ADD SLOAD DUP2 MSTORE PUSH1 0x20 ADD PUSH1 0x1 DUP3 ADD DUP1 SLOAD PUSH2 0x23B SWAP1 PUSH2 0x7B8 JUMP JUMPDEST DUP1 PUSH1 0x1F ADD PUSH1 0x20 DUP1 SWAP2 DIV MUL PUSH1 0x20 ADD PUSH1 0x40 MLOAD SWAP1 DUP2 ADD PUSH1 0x40 MSTORE DUP1 SWAP3 SWAP2 SWAP1 DUP2 DUP2 MSTORE PUSH1 0x20 ADD DUP3 DUP1 SLOAD PUSH2 0x267 SWAP1 PUSH2 0x7B8 JUMP JUMPDEST DUP1 ISZERO PUSH2 0x2B4 JUMPI DUP1 PUSH1 0x1F LT PUSH2 0x289 JUMPI PUSH2 0x100 DUP1 DUP4 SLOAD DIV MUL DUP4 MSTORE SWAP2 PUSH1 0x20 ADD SWAP2 PUSH2 0x2B4 JUMP JUMPDEST DUP3 ADD SWAP2 SWAP1 PUSH1 0x0 MSTORE PUSH1 0x20 PUSH1 0x0 KECCAK256 SWAP1 JUMPDEST DUP2 SLOAD DUP2 MSTORE SWAP1 PUSH1 0x1 ADD SWAP1 PUSH1 0x20 ADD DUP1 DUP4 GT PUSH2 0x297 JUMPI DUP3 SWAP1 SUB PUSH1 0x1F AND DUP3 ADD SWAP2 JUMPDEST POP POP POP POP POP DUP2 MSTORE PUSH1 0x20 ADD PUSH1 0x2 DUP3 ADD PUSH1 0x0 SWAP1 SLOAD SWAP1 PUSH2 0x100 EXP SWAP1 DIV PUSH1 0xFF AND ISZERO ISZERO ISZERO ISZERO DUP2 MSTORE POP POP SWAP1 POP SWAP2 SWAP1 POP JUMP JUMPDEST PUSH1 0x0 DUP1 DUP1 SLOAD SWAP1 POP SWAP1 POP PUSH1 0x0 PUSH1 0x40 MLOAD DUP1 PUSH1 0x60 ADD PUSH1 0x40 MSTORE DUP1 DUP4 DUP2 MSTORE PUSH1 0x20 ADD DUP6 DUP6 DUP1 DUP1 PUSH1 0x1F ADD PUSH1 0x20 DUP1 SWAP2 DIV MUL PUSH1 0x20 ADD PUSH1 0x40 MLOAD SWAP1 DUP2 ADD PUSH1 0x40 MSTORE DUP1 SWAP4 SWAP3 SWAP2 SWAP1 DUP2 DUP2 MSTORE PUSH1 0x20 ADD DUP4 DUP4 DUP1 DUP3 DUP5 CALLDATACOPY PUSH1 0x0 DUP2 DUP5 ADD MSTORE PUSH1 0x1F NOT PUSH1 0x1F DUP3 ADD AND SWAP1 POP DUP1 DUP4 ADD SWAP3 POP POP POP POP POP POP POP DUP2 MSTORE PUSH1 0x20 ADD PUSH1 0x0 ISZERO ISZERO DUP2 MSTORE POP SWAP1 DUP1 PUSH1 0x1 DUP2 SLOAD ADD DUP1 DUP3 SSTORE DUP1 SWAP2 POP POP PUSH1 0x1 SWAP1 SUB SWAP1 PUSH1 0x0 MSTORE PUSH1 0x20 PUSH1 0x0 KECCAK256 SWAP1 PUSH1 0x3 MUL ADD PUSH1 0x0 SWAP1 SWAP2 SWAP1 SWAP2 SWAP1 SWAP2 POP PUSH1 0x0 DUP3 ADD MLOAD DUP2 PUSH1 0x0 ADD SSTORE PUSH1 0x20 DUP3 ADD MLOAD DUP2 PUSH1 0x1 ADD SWAP1 DUP1 MLOAD SWAP1 PUSH1 0x20 ADD SWAP1 PUSH2 0x39B SWAP3 SWAP2 SWAP1 PUSH2 0x3E6 JUMP JUMPDEST POP PUSH1 0x40 DUP3 ADD MLOAD DUP2 PUSH1 0x2 ADD PUSH1 0x0 PUSH2 0x100 EXP DUP2 SLOAD DUP2 PUSH1 0xFF MUL NOT AND SWAP1 DUP4 ISZERO ISZERO MUL OR SWAP1 SSTORE POP POP POP POP POP POP JUMP JUMPDEST PUSH1 0x40 MLOAD DUP1 PUSH1 0x60 ADD PUSH1 0x40 MSTORE DUP1 PUSH1 0x0 DUP2 MSTORE PUSH1 0x20 ADD PUSH1 0x60 DUP2 MSTORE PUSH1 0x20 ADD PUSH1 0x0 ISZERO ISZERO DUP2 MSTORE POP SWAP1 JUMP JUMPDEST DUP3 DUP1 SLOAD PUSH2 0x3F2 SWAP1 PUSH2 0x7B8 JUMP JUMPDEST SWAP1 PUSH1 0x0 MSTORE PUSH1 0x20 PUSH1 0x0 KECCAK256 SWAP1 PUSH1 0x1F ADD PUSH1 0x20 SWAP1 DIV DUP2 ADD SWAP3 DUP3 PUSH2 0x414 JUMPI PUSH1 0x0 DUP6 SSTORE PUSH2 0x45B JUMP JUMPDEST DUP3 PUSH1 0x1F LT PUSH2 0x42D JUMPI DUP1 MLOAD PUSH1 0xFF NOT AND DUP4 DUP1 ADD OR DUP6 SSTORE PUSH2 0x45B JUMP JUMPDEST DUP3 DUP1 ADD PUSH1 0x1 ADD DUP6 SSTORE DUP3 ISZERO PUSH2 0x45B JUMPI SWAP2 DUP3 ADD JUMPDEST DUP3 DUP2 GT ISZERO PUSH2 0x45A JUMPI DUP3 MLOAD DUP3 SSTORE SWAP2 PUSH1 0x20 ADD SWAP2 SWAP1 PUSH1 0x1 ADD SWAP1 PUSH2 0x43F JUMP JUMPDEST JUMPDEST POP SWAP1 POP PUSH2 0x468 SWAP2 SWAP1 PUSH2 0x46C JUMP JUMPDEST POP SWAP1 JUMP JUMPDEST JUMPDEST DUP1 DUP3 GT ISZERO PUSH2 0x485 JUMPI PUSH1 0x0 DUP2 PUSH1 0x0 SWAP1 SSTORE POP PUSH1 0x1 ADD PUSH2 0x46D JUMP JUMPDEST POP SWAP1 JUMP JUMPDEST PUSH1 0x0 DUP1 DUP4 PUSH1 0x1F DUP5 ADD SLT PUSH2 0x49B JUMPI PUSH1 0x0 DUP1 REVERT JUMPDEST DUP3 CALLDATALOAD SWAP1 POP PUSH8 0xFFFFFFFFFFFFFFFF DUP2 GT ISZERO PUSH2 0x4B4 JUMPI PUSH1 0x0 DUP1 REVERT JUMPDEST PUSH1 0x20 DUP4 ADD SWAP2 POP DUP4 PUSH1 0x1 DUP3 MUL DUP4 ADD GT ISZERO PUSH2 0x4CC JUMPI PUSH1 0x0 DUP1 REVERT JUMPDEST SWAP3 POP SWAP3 SWAP1 POP JUMP JUMPDEST PUSH1 0x0 DUP2 CALLDATALOAD SWAP1 POP PUSH2 0x4E2 DUP2 PUSH2 0x82A JUMP JUMPDEST SWAP3 SWAP2 POP POP JUMP JUMPDEST PUSH1 0x0 DUP1 PUSH1 0x20 DUP4 DUP6 SUB SLT ISZERO PUSH2 0x4FB JUMPI PUSH1 0x0 DUP1 REVERT JUMPDEST PUSH1 0x0 DUP4 ADD CALLDATALOAD PUSH8 0xFFFFFFFFFFFFFFFF DUP2 GT ISZERO PUSH2 0x515 JUMPI PUSH1 0x0 DUP1 REVERT JUMPDEST PUSH2 0x521 DUP6 DUP3 DUP7 ADD PUSH2 0x489 JUMP JUMPDEST SWAP3 POP SWAP3 POP POP SWAP3 POP SWAP3 SWAP1 POP JUMP JUMPDEST PUSH1 0x0 PUSH1 0x20 DUP3 DUP5 SUB SLT ISZERO PUSH2 0x53F JUMPI PUSH1 0x0 DUP1 REVERT JUMPDEST PUSH1 0x0 PUSH2 0x54D DUP5 DUP3 DUP6 ADD PUSH2 0x4D3 JUMP JUMPDEST SWAP2 POP POP SWAP3 SWAP2 POP POP JUMP JUMPDEST PUSH1 0x0 PUSH2 0x562 DUP4 DUP4 PUSH2 0x627 JUMP JUMPDEST SWAP1 POP SWAP3 SWAP2 POP POP JUMP JUMPDEST PUSH1 0x0 PUSH2 0x575 DUP3 PUSH2 0x72A JUMP JUMPDEST PUSH2 0x57F DUP2 DUP6 PUSH2 0x74D JUMP JUMPDEST SWAP4 POP DUP4 PUSH1 0x20 DUP3 MUL DUP6 ADD PUSH2 0x591 DUP6 PUSH2 0x71A JUMP JUMPDEST DUP1 PUSH1 0x0 JUMPDEST DUP6 DUP2 LT ISZERO PUSH2 0x5CD JUMPI DUP5 DUP5 SUB DUP10 MSTORE DUP2 MLOAD PUSH2 0x5AE DUP6 DUP3 PUSH2 0x556 JUMP JUMPDEST SWAP5 POP PUSH2 0x5B9 DUP4 PUSH2 0x740 JUMP JUMPDEST SWAP3 POP PUSH1 0x20 DUP11 ADD SWAP10 POP POP PUSH1 0x1 DUP2 ADD SWAP1 POP PUSH2 0x595 JUMP JUMPDEST POP DUP3 SWAP8 POP DUP8 SWAP6 POP POP POP POP POP POP SWAP3 SWAP2 POP POP JUMP JUMPDEST PUSH2 0x5E8 DUP2 PUSH2 0x76F JUMP JUMPDEST DUP3 MSTORE POP POP JUMP JUMPDEST PUSH1 0x0 PUSH2 0x5F9 DUP3 PUSH2 0x735 JUMP JUMPDEST PUSH2 0x603 DUP2 DUP6 PUSH2 0x75E JUMP JUMPDEST SWAP4 POP PUSH2 0x613 DUP2 DUP6 PUSH1 0x20 DUP7 ADD PUSH2 0x785 JUMP JUMPDEST PUSH2 0x61C DUP2 PUSH2 0x819 JUMP JUMPDEST DUP5 ADD SWAP2 POP POP SWAP3 SWAP2 POP POP JUMP JUMPDEST PUSH1 0x0 PUSH1 0x60 DUP4 ADD PUSH1 0x0 DUP4 ADD MLOAD PUSH2 0x63F PUSH1 0x0 DUP7 ADD DUP3 PUSH2 0x6C7 JUMP JUMPDEST POP PUSH1 0x20 DUP4 ADD MLOAD DUP5 DUP3 SUB PUSH1 0x20 DUP7 ADD MSTORE PUSH2 0x657 DUP3 DUP3 PUSH2 0x5EE JUMP JUMPDEST SWAP2 POP POP PUSH1 0x40 DUP4 ADD MLOAD PUSH2 0x66C PUSH1 0x40 DUP7 ADD DUP3 PUSH2 0x5DF JUMP JUMPDEST POP DUP1 SWAP2 POP POP SWAP3 SWAP2 POP POP JUMP JUMPDEST PUSH1 0x0 PUSH1 0x60 DUP4 ADD PUSH1 0x0 DUP4 ADD MLOAD PUSH2 0x68F PUSH1 0x0 DUP7 ADD DUP3 PUSH2 0x6C7 JUMP JUMPDEST POP PUSH1 0x20 DUP4 ADD MLOAD DUP5 DUP3 SUB PUSH1 0x20 DUP7 ADD MSTORE PUSH2 0x6A7 DUP3 DUP3 PUSH2 0x5EE JUMP JUMPDEST SWAP2 POP POP PUSH1 0x40 DUP4 ADD MLOAD PUSH2 0x6BC PUSH1 0x40 DUP7 ADD DUP3 PUSH2 0x5DF JUMP JUMPDEST POP DUP1 SWAP2 POP POP SWAP3 SWAP2 POP POP JUMP JUMPDEST PUSH2 0x6D0 DUP2 PUSH2 0x77B JUMP JUMPDEST DUP3 MSTORE POP POP JUMP JUMPDEST PUSH1 0x0 PUSH1 0x20 DUP3 ADD SWAP1 POP DUP2 DUP2 SUB PUSH1 0x0 DUP4 ADD MSTORE PUSH2 0x6F0 DUP2 DUP5 PUSH2 0x56A JUMP JUMPDEST SWAP1 POP SWAP3 SWAP2 POP POP JUMP JUMPDEST PUSH1 0x0 PUSH1 0x20 DUP3 ADD SWAP1 POP DUP2 DUP2 SUB PUSH1 0x0 DUP4 ADD MSTORE PUSH2 0x712 DUP2 DUP5 PUSH2 0x677 JUMP JUMPDEST SWAP1 POP SWAP3 SWAP2 POP POP JUMP JUMPDEST PUSH1 0x0 DUP2 SWAP1 POP PUSH1 0x20 DUP3 ADD SWAP1 POP SWAP2 SWAP1 POP JUMP JUMPDEST PUSH1 0x0 DUP2 MLOAD SWAP1 POP SWAP2 SWAP1 POP JUMP JUMPDEST PUSH1 0x0 DUP2 MLOAD SWAP1 POP SWAP2 SWAP1 POP JUMP JUMPDEST PUSH1 0x0 PUSH1 0x20 DUP3 ADD SWAP1 POP SWAP2 SWAP1 POP JUMP JUMPDEST PUSH1 0x0 DUP3 DUP3 MSTORE PUSH1 0x20 DUP3 ADD SWAP1 POP SWAP3 SWAP2 POP POP JUMP JUMPDEST PUSH1 0x0 DUP3 DUP3 MSTORE PUSH1 0x20 DUP3 ADD SWAP1 POP SWAP3 SWAP2 POP POP JUMP JUMPDEST PUSH1 0x0 DUP2 ISZERO ISZERO SWAP1 POP SWAP2 SWAP1 POP JUMP JUMPDEST PUSH1 0x0 DUP2 SWAP1 POP SWAP2 SWAP1 POP JUMP JUMPDEST PUSH1 0x0 JUMPDEST DUP4 DUP2 LT ISZERO PUSH2 0x7A3 JUMPI DUP1 DUP3 ADD MLOAD DUP2 DUP5 ADD MSTORE PUSH1 0x20 DUP2 ADD SWAP1 POP PUSH2 0x788 JUMP JUMPDEST DUP4 DUP2 GT ISZERO PUSH2 0x7B2 JUMPI PUSH1 0x0 DUP5 DUP5 ADD MSTORE JUMPDEST POP POP POP POP JUMP JUMPDEST PUSH1 0x0 PUSH1 0x2 DUP3 DIV SWAP1 POP PUSH1 0x1 DUP3 AND DUP1 PUSH2 0x7D0 JUMPI PUSH1 0x7F DUP3 AND SWAP2 POP JUMPDEST PUSH1 0x20 DUP3 LT DUP2 EQ ISZERO PUSH2 0x7E4 JUMPI PUSH2 0x7E3 PUSH2 0x7EA JUMP JUMPDEST JUMPDEST POP SWAP2 SWAP1 POP JUMP JUMPDEST PUSH32 0x4E487B7100000000000000000000000000000000000000000000000000000000 PUSH1 0x0 MSTORE PUSH1 0x22 PUSH1 0x4 MSTORE PUSH1 0x24 PUSH1 0x0 REVERT JUMPDEST PUSH1 0x0 PUSH1 0x1F NOT PUSH1 0x1F DUP4 ADD AND SWAP1 POP SWAP2 SWAP1 POP JUMP JUMPDEST PUSH2 0x833 DUP2 PUSH2 0x77B JUMP JUMPDEST DUP2 EQ PUSH2 0x83E JUMPI PUSH1 0x0 DUP1 REVERT JUMPDEST POP JUMP INVALID LOG2 PUSH5 0x6970667358 0x22 SLT KECCAK256 CALLDATASIZE DUP12 0xD2 0x2C 0xB9 SWAP9 0xD6 0xC4 0xC1 PUSH30 0x362748AF56A42AC4C53309B234C46206B335E550C32A64736F6C63430008 DIV STOP CALLER "
				},
				"gasEstimates": {
					"creation": {
						"codeDepositCost": "433400",
						"executionCost": "468",
						"totalCost": "433868"
					},
					"external": {
						"addTask(string)": "infinite",
						"getTaskByIndex(uint256)": "infinite",
						"getTasks()": "infinite"
					}
				},
				"methodIdentifiers": {
					"addTask(string)": "67238562",
					"getTaskByIndex(uint256)": "5b8ca16f",
					"getTasks()": "04a87e38"
				}
			},
			"storageLayout": {
				"storage": [
					{
						"astId": 12,
						"contract": "todo.sol:Tasks",
						"label": "tasks_list",
						"offset": 0,
						"slot": "0",
						"type": "t_array(t_struct(Task)8_storage)dyn_storage"
					}
				],
				"types": {
					"t_array(t_struct(Task)8_storage)dyn_storage": {
						"base": "t_struct(Task)8_storage",
						"encoding": "dynamic_array",
						"label": "struct Tasks.Task[]",
						"numberOfBytes": "32"
					},
					"t_bool": {
						"encoding": "inplace",
						"label": "bool",
						"numberOfBytes": "1"
					},
					"t_string_storage": {
						"encoding": "bytes",
						"label": "string",
						"numberOfBytes": "32"
					},
					"t_struct(Task)8_storage": {
						"encoding": "inplace",
						"label": "struct Tasks.Task",
						"members": [
							{
								"astId": 3,
								"contract": "todo.sol:Tasks",
								"label": "id",
								"offset": 0,
								"slot": "0",
								"type": "t_uint256"
							},
							{
								"astId": 5,
								"contract": "todo.sol:Tasks",
								"label": "task",
								"offset": 0,
								"slot": "1",
								"type": "t_string_storage"
							},
							{
								"astId": 7,
								"contract": "todo.sol:Tasks",
								"label": "isCompleted",
								"offset": 0,
								"slot": "2",
								"type": "t_bool"
							}
						],
						"numberOfBytes": "96"
					},
					"t_uint256": {
						"encoding": "inplace",
						"label": "uint256",
						"numberOfBytes": "32"
					}
				}
			},
			"userdoc": {
				"kind": "user",
				"methods": {},
				"version": 1
			}
		}
	}
}